:100000000C942A000C9447000C9447000C94470071
:100010000C9447000C9447000C9447000C94470044
:100020000C9447000C9447000C9447000C94470034
:100030000C9447000C9447000C9447000C94470024
:100040000C9447000C9447000C9447000C94470014
:100050000C94470011241FBECFE5D8E0DEBFCDBF12
:1000600013E0A0E6B0E0EAE6F2E302C005900D92EC
:10007000A432B107D9F713E0A4E2B3E001C01D92A6
:10008000A532B107E1F70E943C0F0C9433190C9490
:100090000000EF92FF920F931F937B018C0120E0F1
:1000A00030E040E05FE40E94490388238CF0C801FF
:1000B000B70120E030E040E05FE40E94C1010E940F
:1000C000A9039B01AC01205030404040504806C07D
:1000D000C801B7010E94A9039B01AC01B901CA0183
:1000E0001F910F91FF90EF900895A0E0B0E0EBE733
:1000F000F0E00C94FC18DC012B01FA019C91923089
:1001000008F439C1EB018881823008F433C194309E
:1001100069F4843009F02FC111969C91119789815F
:10012000981709F428C1A3E5B2E025C1843009F489
:1001300021C18230A9F4923009F01DC19A01AD01AC
:1001400088E0EA010990AE01E90109929E0181501F
:10015000C1F7E201898111969C918923818308C1AD
:10016000923009F407C112962D903C901397EB0141
:100170008A819B811496AD90BD90CD90DC901797AD
:10018000EC80FD800E811F819101281B390BB90184
:1001900037FF04C066277727621B730B6032710537
:1001A0000CF061C0121613066CF537014801062EDB
:1001B00004C096948794779467940A94D2F721E0C8
:1001C00030E040E050E004C0220F331F441F551FB1
:1001D0006A95D2F721503040404050402E213F21B7
:1001E00040235123211531054105510521F021E01E
:1001F00030E040E050E079018A01E628F72808293C
:1002000019293CC0232BD1F1260E371E350146019A
:10021000062E04C096948794779467940A94D2F734
:1002200021E030E040E050E004C0220F331F441FC3
:10023000551F6A95D2F721503040404050402A2146
:100240003B214C215D21211531054105510521F04E
:1002500021E030E040E050E059016A01A628B728CB
:10026000C828D9280BC0821593052CF01C01AA249C
:10027000BB24650103C0EE24FF24870111969C91E5
:10028000D20111968C91981709F445C0992339F041
:10029000A80197012A193B094C095D0906C0A6016E
:1002A00095012E193F09400B510B57FD08C01182D3
:1002B0003382228224833583468357831DC081E0A5
:1002C00081833382228288279927DC01821B930B4A
:1002D000A40BB50B84839583A683B7830DC0220F2F
:1002E000331F441F551F24833583468357838281E0
:1002F000938101979383828324813581468157813D
:10030000DA01C9010197A109B1098F5F9F4FAF4F72
:10031000BF4328F30BC0918333822282EA0CFB1C7B
:100320000C1D1D1DE482F5820683178383E0808304
:10033000248135814681578157FF1AC0C901AA27F8
:1003400097FDA095BA2F81709070A070B0705695EF
:10035000479537952795822B932BA42BB52B848318
:100360009583A683B7838281938101969383828349
:10037000DF0101C0D201CD01CDB7DEB7E2E10C94BF
:100380001819A0E2B0E0E7ECF1E00C9408196983D9
:100390007A838B839C832D833E834F835887E9E048
:1003A000EE2EF12CEC0EFD1ECE010196B7010E943F
:1003B000D2048E010F5E1F4FCE010596B8010E9438
:1003C000D2048A8991E089278A8BC701B801AE01DE
:1003D000475E5F4F0E9475000E94FD03A096E6E015
:1003E0000C942419A0E2B0E0E8EFF1E00C940819B5
:1003F00069837A838B839C832D833E834F835887C5
:10040000F9E0EF2EF12CEC0EFD1ECE010196B701A6
:100410000E94D2048E010F5E1F4FCE010596B801D7
:100420000E94D204C701B801AE01475E5F4F0E942F
:1004300075000E94FD03A096E6E00C942419A0E24A
:10044000B0E0E5E2F2E00C94FC1869837A838B83D8
:100450009C832D833E834F835887CE010196BE0136
:10046000675F7F4F0E94D204CE010596BE016F5E8A
:100470007F4F0E94D2049985923088F0898982301A
:10048000C8F0943019F4823051F404C0843029F457
:10049000923081F483E592E0C6C0923049F420E0C6
:1004A0009A858A89981321E02A87CE010996BBC0D4
:1004B000823049F420E09A858A89981321E02A8BBA
:1004C000CE014196B0C02D843E844F8458886D88FB
:1004D0007E888F88988CEE24FF248701AA24BB2471
:1004E000650140E050E060E070E0E0E0F0E0C10174
:1004F00081709070892BE9F0E60CF71C081D191D1E
:100500009A01AB012A0D3B1D4C1D5D1D80E090E062
:10051000A0E0B0E0E614F7040805190520F481E036
:1005200090E0A0E0B0E0BA01A901480F591F6A1F8E
:100530007B1FAA0CBB1CCC1CDD1C97FE08C081E0F5
:1005400090E0A0E0B0E0A82AB92ACA2ADB2A3196B6
:10055000E032F10549F0660C771C881C991C569412
:10056000479437942794C3CFFA85EA892B893C892D
:100570008B859C85280F391F2E5F3F4F17C0CA01FE
:1005800081709070892B61F016950795F794E79428
:1005900080E090E0A0E0B0E8E82AF92A0A2B1B2BC3
:1005A00076956795579547952F5F3F4F77FDE7CF36
:1005B0000CC0440F551F661F771F17FD4160EE0CDE
:1005C000FF1C001F111F21503040403090E05907A0
:1005D00090E0690790E4790760F32B8F3C8FDB0193
:1005E000CA018F779070A070B07080349105A1051A
:1005F000B10561F447FD0AC0E114F10401051105DC
:1006000029F0405C5F4F6F4F7F4F40781A8EFE1786
:1006100011F081E08A8F4D8F5E8F6F8F78A383E01A
:10062000898FCE0149960E94FD03A096E2E10C94C9
:100630001819A8E1B0E0EFE1F3E00C940819698320
:100640007A838B839C832D833E834F83588789E0F5
:10065000E82EF12CEC0EFD1ECE010196B7010E9492
:10066000D2048E010F5E1F4FCE010596B8010E9485
:10067000D2048985823040F08989823028F0C70110
:10068000B8010E944A0501C08FEF6896E6E00C941D
:100690002419A8E1B0E0EFE4F3E00C9408196983B1
:1006A0007A838B839C832D833E834F83588789E095
:1006B000E82EF12CEC0EFD1ECE010196B7010E9432
:1006C000D2048E010F5E1F4FCE010596B8010E9425
:1006D000D2048985823040F08989823028F0C701B0
:1006E000B8010E944A0501C08FEF6896E6E00C94BD
:1006F0002419A8E1B0E0EFE7F3E00C94081969834E
:100700007A838B839C832D833E834F83588789E034
:10071000E82EF12CEC0EFD1ECE010196B7010E94D1
:10072000D2048E010F5E1F4FCE010596B8010E94C4
:10073000D2048985823040F08989823028F0C7014F
:10074000B8010E944A0501C081E06896E6E00C9479
:100750002419ACE0B0E0EFEAF3E00C940C196983E3
:100760007A838B839C83CE010196BE016B5F7F4FA2
:100770000E94D2048D81823061F1823050F1843048
:1007800021F48E81882351F12EC02F81388537FDC9
:1007900020C06E812F3131051CF06623F9F023C093
:1007A0008EE190E0821B930B29853A854B855C8511
:1007B00004C056954795379527958A95D2F76623B5
:1007C000B1F050954095309521953F4F4F4F5F4F79
:1007D0000EC020E030E040E050E009C02FEF3FEFD6
:1007E0004FEF5FE704C020E030E040E050E8B9019F
:1007F000CA012C96E2E00C942819DF92EF92FF9246
:100800000F931F93FC01E480F58006811781D1804E
:100810008081823048F480E090E0A0E1B0E0E82AF6
:10082000F92A0A2B1B2BA5C0843009F49FC0823003
:1008300021F4EE24FF24870105C0E114F104010531
:10084000110519F4E0E0F0E096C0628173819FEF3A
:10085000623879070CF05BC022E83FEF261B370BAC
:100860002A3131052CF020E030E040E050E02AC091
:10087000B801A701022E04C0769567955795479554
:100880000A94D2F781E090E0A0E0B0E004C0880FC5
:10089000991FAA1FBB1F2A95D2F70197A109B10979
:1008A0008E219F21A023B1230097A105B10521F03E
:1008B00081E090E0A0E0B0E09A01AB01282B392B59
:1008C0004A2B5B2BDA01C9018F779070A070B07052
:1008D00080349105A105B10539F427FF09C0205CDA
:1008E0003F4F4F4F5F4F04C0215C3F4F4F4F5F4F13
:1008F000E0E0F0E02030A0E03A07A0E04A07A0E402
:100900005A0710F0E1E0F0E079018A0127C0603871
:10091000710564F5FB01E158FF4FD801C7018F77DE
:100920009070A070B07080349105A105B10539F4C4
:10093000E7FE0DC080E490E0A0E0B0E004C08FE3EB
:1009400090E0A0E0B0E0E80EF91E0A1F1B1F17FFA1
:1009500005C016950795F794E794319687E01695AC
:100960000795F794E7948A95D1F705C0EE24FF2404
:100970008701EFEFF0E06E2F679566276795902F60
:100980009F77D794DD24D7948E2F8695492F462BB9
:10099000582F5D29B701CA011F910F91FF90EF9069
:1009A000DF900895FC01DB01408151812281622F9B
:1009B0006F7770E0221F2227221F9381892F880FD3
:1009C000822B282F30E0991F9927991F11969C930D
:1009D000119721153105A9F54115510561057105DD
:1009E00011F482E037C082E89FEF13969C938E93B8
:1009F00012979A01AB0167E0220F331F441F551F66
:100A00006A95D1F783E08C930DC0220F331F441FEA
:100A1000551F12968D919C911397019713969C9355
:100A20008E931297203080E0380780E0480780E4FA
:100A3000580758F314962D933D934D935C93179755
:100A400008952F3F310579F4411551056105710570
:100A500019F484E08C93089564FF03C081E08C93C3
:100A600012C01C9210C02F57304013963C932E9307
:100A7000129783E08C9387E0440F551F661F771F02
:100A80008A95D1F7706414964D935D936D937C9322
:100A9000179708951F93DC01FB019C91923008F495
:100AA00047C08081823008F443C0943051F41196DD
:100AB0001C91843099F58181682F70E0611B710968
:100AC0003FC0843021F0923031F48230B9F181811D
:100AD000882389F12DC011961C9111978230F1F075
:100AE00081811817D9F412962D913C911397828128
:100AF00093818217930794F028173907BCF0149656
:100B00008D919D910D90BC91A02D248135814681C0
:100B10005781281739074A075B0718F4112341F05A
:100B20000AC082179307A407B50740F4112319F0F0
:100B300061E070E005C06FEF7FEF02C060E070E041
:100B4000CB011F910895DF93CF93CDB7DEB72F97D9
:100B50000FB6F894DEBF0FBECDBF8F8783E060E095
:100B600041E00E94470B83E061E040E00E94470BB8
:100B700081E06F850E94050B83E062E041E00E9406
:100B8000470B80E090E0A0E8BFE38B879C87AD87B0
:100B9000BE876B857C858D859E8520E030E04AEFA1
:100BA00054E40E941F02DC01CB018F839887A98740
:100BB000BA876F81788589859A8520E030E040E8A2
:100BC0005FE30E94790388232CF481E090E09E8308
:100BD0008D833FC06F81788589859A8520E03FEFBE
:100BE0004FE757E40E94190318164CF56B857C8576
:100BF0008D859E8520E030E040E251E40E941F0296
:100C0000DC01CB01BC01CD010E944900DC01CB011C
:100C10009E838D830FC088EC90E09C838B838B81B7
:100C20009C810197F1F79C838B838D819E81019735
:100C30009E838D838D819E81009769F714C06F819B
:100C4000788589859A850E944900DC01CB019E83C5
:100C50008D838D819E819A83898389819A81019771
:100C6000F1F79A83898383E062E040E00E94470BBA
:100C70002F960FB6F894DEBF0FBECDBFCF91DF9198
:100C80000895DF93CF93CDB7DEB72F970FB6F894C3
:100C9000DEBF0FBECDBF8F8783E060E040E00E94E3
:100CA000470B83E061E040E00E94470B81E06F85E5
:100CB0000E94050B83E062E041E00E94470B80E068
:100CC00090E0A0E8BFE38B879C87AD87BE876B85EC
:100CD0007C858D859E8520E030E04AEF54E40E94BB
:100CE0001F02DC01CB018F839887A987BA876F81A8
:100CF000788589859A8520E030E040E85FE30E94AE
:100D0000790388232CF481E090E09E838D833FC09B
:100D10006F81788589859A8520E03FEF4FE757E41A
:100D20000E94190318164CF56B857C858D859E8570
:100D300020E030E040E251E40E941F02DC01CB01E0
:100D4000BC01CD010E944900DC01CB019E838D8353
:100D50000FC088EC90E09C838B838B819C810197F2
:100D6000F1F79C838B838D819E8101979E838D8378
:100D70008D819E81009769F714C06F817885898580
:100D80009A850E944900DC01CB019E838D838D8171
:100D90009E819A83898389819A810197F1F79A8349
:100DA000898383E062E040E00E94470B2F960FB6F4
:100DB000F894DEBF0FBECDBFCF91DF910895DF93D2
:100DC000CF93CDB7DEB7E8970FB6F894DEBF0FBE6E
:100DD000CDBF80E090E0A0E2B2E48DAB9EABAFABC4
:100DE000B8AF6DA97EA98FA998AD20E030E04AEF99
:100DF00054E40E941F02DC01CB0189AB9AABABAB80
:100E0000BCAB69A97AA98BA99CA920E030E040E895
:100E10005FE30E94790388232CF481E090E098AB93
:100E20008FA73FC069A97AA98BA99CA920E03FEFB1
:100E30004FE757E40E94190318164CF56DA97EA9D7
:100E40008FA998AD20E030E040E251E40E941F02FB
:100E5000DC01CB01BC01CD010E944900DC01CB01CA
:100E600098AB8FA70FC088EC90E09EA78DA78DA5AB
:100E70009EA50197F1F79EA78DA78FA598A9019729
:100E800098AB8FA78FA598A9009769F714C069A997
:100E90007AA98BA99CA90E944900DC01CB0198ABDF
:100EA0008FA78FA598A99CA78BA78BA59CA5019719
:100EB000F1F79CA78BA788E30E94410680E090E0B1
:100EC000A0E8BFE38FA398A7A9A7BAA76FA178A5A9
:100ED00089A59AA520E030E04AEF54E40E941F0261
:100EE000DC01CB018BA39CA3ADA3BEA36BA17CA112
:100EF0008DA19EA120E030E040E85FE30E947903ED
:100F000088232CF481E090E09AA389A33FC06BA1D1
:100F10007CA18DA19EA120E03FEF4FE757E40E9406
:100F2000190318164CF56FA178A589A59AA520E09C
:100F300030E040E251E40E941F02DC01CB01BC0121
:100F4000CD010E944900DC01CB019AA389A30FC007
:100F500088EC90E098A38F8F8F8D98A10197F1F77F
:100F600098A38F8F89A19AA101979AA389A389A198
:100F70009AA1009769F714C06BA17CA18DA19EA1D5
:100F80000E944900DC01CB019AA389A389A19AA1FF
:100F90009E8F8D8F8D8D9E8D0197F1F79E8F8D8FFA
:100FA0008CE00E94410680E090E0A0E8BFE3898FDA
:100FB0009A8FAB8FBC8F698D7A8D8B8D9C8D20E045
:100FC00030E04AEF54E40E941F02DC01CB018D8B1C
:100FD0009E8BAF8BB88F6D897E898F89988D20E02D
:100FE00030E040E85FE30E94790388232CF481E03D
:100FF00090E09C8B8B8B3FC06D897E898F89988D0B
:1010000020E03FEF4FE757E40E94190318164CF514
:10101000698D7A8D8B8D9C8D20E030E040E251E42B
:101020000E941F02DC01CB01BC01CD010E944900DE
:10103000DC01CB019C8B8B8B0FC088EC90E09A8BF2
:10104000898B89899A890197F1F79A8B898B8B898A
:101050009C8901979C8B8B8B8B899C89009769F766
:1010600014C06D897E898F89988D0E944900DC01AA
:10107000CB019C8B8B8B8B899C89988B8F878F85E1
:1010800098890197F1F7988B8F8781E00E9441063C
:1010900080E090E0A0E0B0E48B879C87AD87BE87BE
:1010A0006B857C858D859E8520E030E04AEF54E499
:1010B0000E941F02DC01CB018F839887A987BA8722
:1010C0006F81788589859A8520E030E040E85FE38C
:1010D0000E94790388232CF481E090E09E838D8325
:1010E0003FC06F81788589859A8520E03FEF4FE783
:1010F00057E40E94190318164CF56B857C858D8585
:101100009E8520E030E040E251E40E941F02DC01B5
:10111000CB01BC01CD010E944900DC01CB019E83C3
:101120008D830FC088EC90E09C838B838B819C81A6
:101130000197F1F79C838B838D819E8101979E831C
:101140008D838D819E81009769F714C06F817885AA
:1011500089859A850E944900DC01CB019E838D839D
:101160008D819E819A83898389819A810197F1F784
:101170009A838983E8960FB6F894DEBF0FBECDBF81
:10118000CF91DF910895DF93CF9300D00F92CDB729
:10119000DEB79B838A8319820EC08981282F30E0B5
:1011A0008A819B81FC01E20FF31F80810E94A305CD
:1011B00089818F5F89838981282F30E08A819B8193
:1011C000FC01E20FF31F8081882339F70F900F9005
:1011D0000F90CF91DF910895DF93CF93CDB7DEB716
:1011E0002E970FB6F894DEBF0FBECDBF9E878D87BA
:1011F0001A828D859E85009711F580E30E94A305D4
:1012000022C08A81E82FF0E08D859E852AE030E0BB
:10121000B9010E94E818282F205DCE010396E80F3F
:10122000F91F20838D859E852AE030E0B9010E9458
:10123000E818CB019E878D878A818F5F8A838D8591
:101240009E850097F1F68A81898311C08981882F54
:1012500090E09C0121503040CE010396FC01E20F4A
:10126000F31F80810E94A305898181508983898130
:10127000882361F72E960FB6F894DEBF0FBECDBF60
:10128000CF91DF910895DF93CF9300D00F92CDB728
:10129000DEB78A836B838A81882319F48B818983E3
:1012A00006C08A81813019F48B81805C89838981B1
:1012B00080580E9441060F900F900F90CF91DF91C0
:1012C0000895DF93CF93CDB7DEB727970FB6F89485
:1012D000DEBF0FBECDBF9C838B836D834E832F8378
:1012E00019828D81882F90E0880F991F880F991F90
:1012F000880F991F8A838A81805C0E944106198227
:101300000EC08981282F30E08B819C81FC01E20F87
:10131000F31F80810E94A30589818F5F8983898162
:10132000883078F38E816F810E9443098D810E94FD
:10133000A30527960FB6F894DEBF0FBECDBFCF91A1
:10134000DF910895DF93CF93CDB7DEB780E060E003
:101350000E94430980E690E00E94C30881E060E0BB
:101360000E94430980E690E00E94C30880E060E0AC
:101370000E944309CF91DF910895DF93CF9300D06E
:1013800000D0CDB7DEB789836A838981282F30E00A
:101390003C832B838B819C8182309105D9F02B81FA
:1013A0003C812330310534F48B819C81813091055F
:1013B00061F01EC02B813C812330310581F08B818F
:1013C0009C818430910581F013C0EAE3F0E08A81CA
:1013D00080830EC0E7E3F0E08A81808309C0E4E304
:1013E000F0E08A81808304C0E1E3F0E08A818083B9
:1013F0000F900F900F900F90CF91DF910895DF9392
:10140000CF93CDB7DEB727970FB6F894DEBF0FBEE8
:10141000CDBF89836A834B838A81883008F0ECC012
:101420008B81813009F070C08981282F30E03F83A3
:101430002E838E819F818230910551F12E813F81D3
:101440002330310534F48E819F818130910561F024
:10145000D3C02E813F812330310571F18E819F8170
:1014600084309105E9F1C8C0AAE3B0E0EAE3F0E016
:101470008081482F8A81282F30E081E090E0022E81
:1014800002C0880F991F0A94E2F7842B8C93B4C092
:10149000A7E3B0E0E7E3F0E08081482F8A81282FBE
:1014A00030E081E090E0022E02C0880F991F0A947C
:1014B000E2F7842B8C93A0C0A4E3B0E0E4E3F0E077
:1014C0008081482F8A81282F30E081E090E0022E31
:1014D00002C0880F991F0A94E2F7842B8C938CC06A
:1014E000A1E3B0E0E1E3F0E08081482F8A81282F7A
:1014F00030E081E090E0022E02C0880F991F0A942C
:10150000E2F7842B8C9378C08B81882309F074C018
:101510008981282F30E03D832C838C819D8182300E
:10152000910561F12C813D812330310534F48C81AA
:101530009D818130910569F05FC02C813D81233010
:10154000310589F18C819D818430910509F440C079
:1015500053C0AAE3B0E0EAE3F0E08081482F8A813B
:10156000282F30E081E090E0022E02C0880F991F02
:101570000A94E2F7809584238C933EC0A7E3B0E001
:10158000E7E3F0E08081482F8A81282F30E081E076
:1015900090E0022E02C0880F991F0A94E2F780950E
:1015A00084238C9329C0A4E3B0E0E4E3F0E08081DD
:1015B000482F8A81282F30E081E090E0022E02C07F
:1015C000880F991F0A94E2F7809584238C9314C0A6
:1015D000A1E3B0E0E1E3F0E08081482F8A81282F89
:1015E00030E081E090E0022E02C0880F991F0A943B
:1015F000E2F7809584238C9327960FB6F894DEBF8C
:101600000FBECDBFCF91DF910895DF93CF9300D070
:1016100000D0CDB7DEB789836A838981282F30E077
:101620003C832B838B819C8182309105D9F02B8167
:101630003C812330310534F48B819C8181309105CC
:1016400061F01EC02B813C812330310581F08B81FC
:101650009C818430910581F013C0EBE3F0E08A8136
:1016600080830EC0E8E3F0E08A81808309C0E5E36F
:10167000F0E08A81808304C0E2E3F0E08A81808325
:101680000F900F900F900F90CF91DF910895DF93FF
:10169000CF93CDB7DEB727970FB6F894DEBF0FBE56
:1016A000CDBF89836A834B838A81883008F0ECC080
:1016B0008B81813009F070C08981282F30E03F8311
:1016C0002E838E819F818230910551F12E813F8141
:1016D0002330310534F48E819F818130910561F092
:1016E000D3C02E813F812330310571F18E819F81DE
:1016F00084309105E9F1C8C0ABE3B0E0EBE3F0E082
:101700008081482F8A81282F30E081E090E0022EEE
:1017100002C0880F991F0A94E2F7842B8C93B4C0FF
:10172000A8E3B0E0E8E3F0E08081482F8A81282F29
:1017300030E081E090E0022E02C0880F991F0A94E9
:10174000E2F7842B8C93A0C0A5E3B0E0E5E3F0E0E2
:101750008081482F8A81282F30E081E090E0022E9E
:1017600002C0880F991F0A94E2F7842B8C938CC0D7
:10177000A2E3B0E0E2E3F0E08081482F8A81282FE5
:1017800030E081E090E0022E02C0880F991F0A9499
:10179000E2F7842B8C9378C08B81882309F074C086
:1017A0008981282F30E03D832C838C819D8182307C
:1017B000910561F12C813D812330310534F48C8118
:1017C0009D818130910569F05FC02C813D8123307E
:1017D000310589F18C819D818430910509F440C0E7
:1017E00053C0ABE3B0E0EBE3F0E08081482F8A81A7
:1017F000282F30E081E090E0022E02C0880F991F70
:101800000A94E2F7809584238C933EC0A8E3B0E06D
:10181000E8E3F0E08081482F8A81282F30E081E0E2
:1018200090E0022E02C0880F991F0A94E2F780957B
:1018300084238C9329C0A5E3B0E0E5E3F0E0808148
:10184000482F8A81282F30E081E090E0022E02C0EC
:10185000880F991F0A94E2F7809584238C9314C013
:10186000A2E3B0E0E2E3F0E08081482F8A81282FF4
:1018700030E081E090E0022E02C0880F991F0A94A8
:10188000E2F7809584238C9327960FB6F894DEBFF9
:101890000FBECDBFCF91DF910895DF93CF9300D0DE
:1018A00000D00F92CDB7DEB78A836B8319828B810C
:1018B000883008F067C08A81282F30E03D832C8370
:1018C0004C815D814230510541F18C819D81833095
:1018D000910534F42C813D812130310561F052C0F5
:1018E0004C815D814330510551F18C819D81843063
:1018F0009105B9F147C0E9E3F0E08081282F30E09D
:101900008B81882F90E0A90102C0559547958A9553
:10191000E2F7CA018170898335C0E6E3F0E0808197
:10192000282F30E08B81882F90E0A90102C05595C7
:1019300047958A95E2F7CA018170898323C0E3E362
:10194000F0E08081282F30E08B81882F90E0A90182
:1019500002C0559547958A95E2F7CA01817089833F
:1019600011C0E0E3F0E08081282F30E08B81882FE8
:1019700090E0A90102C0559547958A95E2F7CA0102
:101980008170898389810F900F900F900F900F9035
:10199000CF91DF910895DF93CF93CDB7DEB7ADE25E
:1019A000B0E0EDE2F0E0808180618C93ADE2B0E0E8
:1019B000EDE2F0E0808181608C93ADE2B0E0EDE299
:1019C000F0E0808182608C93AEE2B0E0EEE2F0E085
:1019D000808181608C93ADE2B0E0EDE2F0E0808147
:1019E00080648C93CF91DF910895DF93CF93CDB72F
:1019F000DEB7ADE2B0E0EDE2F0E080818F7E8C9367
:101A0000ADE2B0E0EDE2F0E0808180648C93CF91B4
:101A1000DF910895DF93CF930F92CDB7DEB789831F
:101A2000EFE2F0E089818083EEE2F0E080818823BC
:101A3000DCF7EFE2F0E080810F90CF91DF91089525
:101A4000DF93CF93CDB7DEB7A3E5B0E0E3E5F0E0F9
:101A5000808188608C93A3E5B0E0E3E5F0E08081CD
:101A600080648C93A3E5B0E0E3E5F0E080818062E0
:101A70008C93A3E5B0E0E3E5F0E080818F7E8C936A
:101A8000A3E5B0E0E3E5F0E080818B7F8C93A3E5F4
:101A9000B0E0E3E5F0E0808182608C93A3E5B0E004
:101AA000E3E5F0E0808181608C93CF91DF91089530
:101AB000DF93CF930F92CDB7DEB78983ECE5F0E0EB
:101AC000898180830F90CF91DF910895DF93CF9329
:101AD000CDB7DEB7A5E4B0E0E5E4F0E08081886052
:101AE0008C93A5E4B0E0E5E4F0E0808180648C9321
:101AF000A5E4B0E0E5E4F0E0808180628C93A5E4A9
:101B0000B0E0E5E4F0E080818F7E8C93A5E4B0E066
:101B1000E5E4F0E080818B7F8C93A3E5B0E0E3E522
:101B2000F0E0808182608C93A5E4B0E0E5E4F0E031
:101B3000808181608C93CF91DF910895DF93CF9363
:101B40000F92CDB7DEB78983E3E4F0E0898180832B
:101B50000F90CF91DF910895DF93CF93CDB7DEB78C
:101B6000AFE4B0E0EFE4F0E080818E7F8C93AFE4EF
:101B7000B0E0EFE4F0E0808182608C93AEE4B0E00E
:101B8000EEE4F0E0808188608C93AEE4B0E0EEE4B7
:101B9000F0E0808180618C93AFE4B0E0EFE4F0E0AE
:101BA000808180688C93AFE4B0E0EFE4F0E0808166
:101BB0008F7B8C93AEE4B0E0EEE4F0E080818E7F2A
:101BC0008C93AEE4B0E0EEE4F0E0808182608C9330
:101BD000AEE4B0E0EEE4F0E080818B7F8C93CF91B7
:101BE000DF910895DF93CF9300D0CDB7DEB79A830E
:101BF0008983EAE4F0E089819A81918380830F9060
:101C00000F90CF91DF910895DF93CF9300D0CDB7A0
:101C1000DEB79A838983E6E4F0E089819A81918333
:101C200080830F900F90CF91DF910895DF93CF9332
:101C300000D00F92CDB7DEB71B8283E390E09A838A
:101C40008983E0E4F0E089819A81892F9927808354
:101C5000E9E2F0E089818083ABE2B0E0EBE2F0E022
:101C600080818D7F8C938B818F7B8B838B818F7D0C
:101C70008B838B818F7E8B838B8182608B838B8127
:101C800084608B83AAE2B0E0EAE2F0E080818B7F9F
:101C90008C938B81877F8B838B8180688B83E0E43F
:101CA000F0E08B818083AAE2B0E0EAE2F0E080819C
:101CB00088608C93AAE2B0E0EAE2F0E08081806183
:101CC0008C930F900F900F90CF91DF910895DF9339
:101CD000CF930F92CDB7DEB78983EBE2F0E080813E
:101CE000829586958770882F90E08170907000971C
:101CF000A1F3ECE2F0E0898180830F90CF91DF9136
:101D00000895DF93CF93CDB7DEB7EBE2F0E08081AB
:101D10008823DCF7ECE2F0E08081CF91DF91089539
:101D2000DF93CF9300D00F92CDB7DEB79B838A832A
:101D300019820EC08981282F30E08A819B81FC01A5
:101D4000E20FF31F80810E94670E89818F5F898374
:101D50008981282F30E08A819B81FC01E20FF31FEB
:101D60008081882339F70F900F900F90CF91DF91EA
:101D700008950F931F93DF93CF9300D00F92CDB7A9
:101D8000DEB79B838A8319828981282F30E08A817C
:101D90009B818C01020F131F0E94810EF80180832A
:101DA0000FC089818F5F89838981282F30E08A81E4
:101DB0009B818C01020F131F0E94810EF80180830A
:101DC0008981282F30E08A819B81FC01E20FF31F7B
:101DD0008081803231F78981282F30E08A819B8190
:101DE000FC01E20FF31F10820F900F900F90CF9124
:101DF000DF911F910F910895DF93CF9300D000D012
:101E000000D0CDB7DEB79C838B837E836D831A822F
:101E100081E089831CC08A81282F30E08B819C81DE
:101E2000FC01E20FF31F40818A81282F30E08D8171
:101E30009E81FC01E20FF31F8081481731F481E09D
:101E400089838A818F5F8A8302C019820BC08A814D
:101E5000282F30E08D819E81FC01E20FF31F8081ED
:101E60008823C9F6898126960FB6F894DEBF0FBE87
:101E7000CDBFCF91DF910895DF93CF93CDB7DEB77C
:101E8000E4970FB6F894DEBF0FBECDBF81E06FEFD1
:101E90000E94BD0983E06FEF0E94BD0984E067E006
:101EA00041E00E94FF0984E065E041E00E94FF09F3
:101EB00084E060E040E00E94FF0984E061E041E0EE
:101EC0000E94FF0982E063E041E00E94FF0982E096
:101ED00065E041E00E94FF0982E064E041E00E9489
:101EE000FF0982E064E040E00E94470B82E066E088
:101EF00040E00E94FF0982E067E041E00E94FF09A4
:101F00000E94DF060E94160E0E94AC0D80E29EE445
:101F10000E94040E0E94CB0C0E94A2098AE790E066
:101F20000E94C30888E890E00E94900E80E090E054
:101F3000A8ECB2E48FA398A7A9A7BAA76FA178A528
:101F400089A59AA520E030E04AEF54E40E941F02E0
:101F5000DC01CB018BA39CA3ADA3BEA36BA17CA191
:101F60008DA19EA120E030E040E85FE30E9479036C
:101F700088232CF481E090E09AA389A33FC06BA151
:101F80007CA18DA19EA120E03FEF4FE757E40E9486
:101F9000190318164CF56FA178A589A59AA520E01C
:101FA00030E040E251E40E941F02DC01CB01BC01A1
:101FB000CD010E944900DC01CB019AA389A30FC087
:101FC00088EC90E098A38F8F8F8D98A10197F1F7FF
:101FD00098A38F8F89A19AA101979AA389A389A118
:101FE0009AA1009769F714C06BA17CA18DA19EA155
:101FF0000E944900DC01CB019AA389A389A19AA17F
:102000009E8F8D8F8D8D9E8D0197F1F79E8F8D8F79
:10201000CE018B960E94B90E80E090E0A8ECB2E46D
:10202000898F9A8FAB8FBC8F698D7A8D8B8D9C8DAC
:1020300020E030E04AEF54E40E941F02DC01CB01B3
:102040008D8B9E8BAF8BB88F6D897E898F89988D94
:1020500020E030E040E85FE30E94790388232CF41D
:1020600081E090E09C8B8B8B3FC06D897E898F894E
:10207000988D20E03FEF4FE757E40E9419031816B0
:102080004CF5698D7A8D8B8D9C8D20E030E040E29F
:1020900051E40E941F02DC01CB01BC01CD010E9472
:1020A0004900DC01CB019C8B8B8B0FC088EC90E04E
:1020B0009A8B898B89899A890197F1F79A8B898BF9
:1020C0008B899C8901979C8B8B8B8B899C89009732
:1020D00069F714C06D897E898F89988D0E944900A7
:1020E000DC01CB019C8B8B8B8B899C89988B8F8798
:1020F0008F8598890197F1F7988B8F87CE018B9602
:102100002BE532E0B9010E94FC0E882329F085E618
:1021100092E00E94811100CFCE018B962FE632E033
:10212000B9010E94FC0E882329F089E792E00E9401
:102130008111F2CECE018B9623E832E0B9010E94E4
:10214000FC0E882329F08DE892E00E948111E4CEF4
:10215000CE018B9627E932E0B9010E94FC0E88235C
:1021600029F081EA92E00E948111D6CECE018B96B1
:102170002BEA32E0B9010E94FC0E882329F085EB9E
:1021800092E00E948111C8CECE018B962FEB32E0F7
:10219000B9010E94FC0E882329F089EC92E00E948C
:1021A0008111BACECE018B9623ED32E0B9010E94A7
:1021B000FC0E882329F08DED92E00E948111ACCEB7
:1021C000CE018B9627EE32E0B9010E94FC0E8823E7
:1021D00029F081EF92E00E9481119ECECE018B9674
:1021E0002BEF32E0B9010E94FC0E882329F085E034
:1021F00093E00E94811190CECE018B962FE033E0C8
:10220000B9010E94FC0E882329F089E193E00E9425
:10221000811182CE8EE990E00E94900E80E090E0E5
:10222000AAEFB3E48B879C87AD87BE876B857C85DF
:102230008D859E8520E030E04AEF54E40E941F0225
:10224000DC01CB018F839887A987BA876F81788556
:1022500089859A8520E030E040E85FE30E947903B9
:1022600088232CF481E090E09E838D833FC06F81B2
:10227000788589859A8520E03FEF4FE757E40E94F3
:10228000190318164CF56B857C858D859E8520E09D
:1022900030E040E251E40E941F02DC01CB01BC01AE
:1022A000CD010E944900DC01CB019E838D830FC0CC
:1022B00088EC90E09C838B838B819C810197F1F764
:1022C0009C838B838D819E8101979E838D838D81DD
:1022D0009E81009769F720CE6F81788589859A85E0
:1022E0000E944900DC01CB019E838D838D819E81FC
:1022F0009A83898389819A810197F1F79A838983E7
:102300000BCE0F931F93DF93CF93CDB7DEB7C95595
:10231000D0400FB6F894DEBF0FBECDBFFE01E85A25
:10232000FF4F91838083FE01E35BFF4F83E0808357
:1023300057C10E94A20985EB90E00E94C30881E08A
:1023400090E060E070E00E94430984EC90E00E941D
:10235000C30881E090E066E070E00E944309FE015E
:10236000E35BFF4F8081882F90E00E94EC088CECAB
:1023700090E00E94900EFE01ED5BFF4F80E090E048
:10238000A8ECB2E480839183A283B3838E01015CC5
:102390001F4FFE01ED5BFF4F608171818281938150
:1023A00020E030E04AEF54E40E941F02DC01CB0140
:1023B000F80180839183A283B383FE01FF9660813D
:1023C00071818281938120E030E040E85FE30E94E8
:1023D000790388232CF481E090E09EAF8DAF46C056
:1023E000FE01FF96608171818281938120E03FEF41
:1023F0004FE757E40E941903181664F5FE01ED5BE0
:10240000FF4F608171818281938120E030E040E262
:1024100051E40E941F02DC01CB01BC01CD010E94EE
:102420004900DC01CB019EAF8DAF0FC088EC90E07E
:102430009CAF8BAF8BAD9CAD0197F1F79CAF8BAF91
:102440008DAD9EAD01979EAF8DAF8DAD9EAD0097CA
:1024500069F716C0FE01FF966081718182819381C8
:102460000E944900DC01CB019EAF8DAF8DAD9EADCA
:102470009AAF89AF89AD9AAD0197F1F79AAF89AF5D
:10248000CE01825B9F4F0E94B90ECE01825B9F4FAF
:10249000FE01E85AFF4F20813181B9010E94FC0EF4
:1024A000882371F081E0809324030E94A20984EEC6
:1024B00090E00E94C3088CEE90E00E94900E22C330
:1024C000DE01A35BBF4FFE01E35BFF4F80818150C4
:1024D0008C93FE01E35BFF4F8081882349F40E94C7
:1024E000A20988EF90E00E94C3080E949315FDCFD7
:1024F0000E94A2098EEF90E00E94C30880E090E065
:10250000AAEFB3E48DAB9EABAFABB8AF6DA97EA91C
:102510008FA998AD20E030E04AEF54E40E941F02FA
:10252000DC01CB0189AB9AABABABBCAB69A97AA997
:102530008BA99CA920E030E040E85FE30E9479038A
:1025400088232CF481E090E098AB8FA73FC069A965
:102550007AA98BA99CA920E03FEF4FE757E40E949E
:10256000190318164CF56DA97EA98FA998AD20E026
:1025700030E040E251E40E941F02DC01CB01BC01CB
:10258000CD010E944900DC01CB0198AB8FA70FC0A1
:1025900088EC90E09EA78DA78DA59EA50197F1F7E9
:1025A0009EA78DA78FA598A9019798AB8FA78FA5F8
:1025B00098A9009769F714C069A97AA98BA99CA961
:1025C0000E944900DC01CB0198AB8FA78FA598A989
:1025D0009CA78BA78BA59CA50197F1F79CA78BA720
:1025E000FE01E35BFF4F8081882309F0A2CE8AC2FF
:1025F000FE01E45BFF4F1082FE01E55BFF4F10829E
:102600008DE091E00E94900E89E191E00E94900E91
:102610008DE291E00E94900E80E391E00E94900E86
:102620008DE291E00E94900E85E491E00E94900E70
:102630008DE291E00E94900E8AE591E00E94900E5A
:102640008DE291E00E94900E80E791E00E94900E52
:102650008DE291E00E94900E83E891E00E94900E3E
:102660008DE291E00E94900E87E991E00E94900E29
:102670008DE291E00E94900E8FEA91E00E94900E10
:102680008DE291E00E94900E0E94A20986EC91E0FA
:102690000E94C30881E090E060E070E00E9443097E
:1026A00085ED91E00E94C3080E94810EFE01E45B6B
:1026B000FF4F8083FE01E45BFF4F8081813309F08F
:1026C0009EC00E94A20983EE91E00E94C308FE0111
:1026D000E75BFF4F8EEE92E09183808385C0FE0121
:1026E000E75BFF4F808191810E94F20D80E090E0D6
:1026F000A0E8BFE38FA398A7A9A7BAA76FA178A561
:1027000089A59AA520E030E04AEF54E40E941F0218
:10271000DC01CB018BA39CA3ADA3BEA36BA17CA1C9
:102720008DA19EA120E030E040E85FE30E947903A4
:1027300088232CF481E090E09AA389A33FC06BA189
:102740007CA18DA19EA120E03FEF4FE757E40E94BE
:10275000190318164CF56FA178A589A59AA520E054
:1027600030E040E251E40E941F02DC01CB01BC01D9
:10277000CD010E944900DC01CB019AA389A30FC0BF
:1027800088EC90E098A38F8F8F8D98A10197F1F737
:1027900098A38F8F89A19AA101979AA389A389A150
:1027A0009AA1009769F714C06BA17CA18DA19EA18D
:1027B0000E944900DC01CB019AA389A389A19AA1B7
:1027C0009E8F8D8F8D8D9E8D0197F1F79E8F8D8FB2
:1027D000DE01A75BBF4FFE01E75BFF4F8081918168
:1027E000019611969C938E93FE01E75BFF4F8081CB
:1027F0009181F5E08C3D9F0708F471CF83C1FE0104
:10280000E45BFF4F8081823309F09EC00E94A209E1
:1028100083EF91E00E94C308FE01E95BFF4F8CED5E
:1028200095E09183808385C0FE01E95BFF4F808145
:1028300091810E94F20D80E090E0A0E8BFE3898FD3
:102840009A8FAB8FBC8F698D7A8D8B8D9C8D20E09C
:1028500030E04AEF54E40E941F02DC01CB018D8B73
:102860009E8BAF8BB88F6D897E898F89988D20E084
:1028700030E040E85FE30E94790388232CF481E094
:1028800090E09C8B8B8B3FC06D897E898F89988D62
:1028900020E03FEF4FE757E40E94190318164CF56C
:1028A000698D7A8D8B8D9C8D20E030E040E251E483
:1028B0000E941F02DC01CB01BC01CD010E94490036
:1028C000DC01CB019C8B8B8B0FC088EC90E09A8B4A
:1028D000898B89899A890197F1F79A8B898B8B89E2
:1028E0009C8901979C8B8B8B8B899C89009769F7BE
:1028F00014C06D897E898F89988D0E944900DC0102
:10290000CB019C8B8B8B8B899C89988B8F878F8538
:1029100098890197F1F7988B8F87DE01A95BBF4FEC
:10292000FE01E95BFF4F80819181019711969C9395
:102930008E93FE01E95BFF4F8081918122E08F3E03
:10294000920708F071CFDEC0FE01E45BFF4F80818B
:10295000833389F40E94A20983E092E00E94C308B5
:1029600083E066E041E00E94470B83E067E041E0DE
:102970000E94470BC7C0FE01E45BFF4F8081843398
:1029800089F40E94A20984E192E00E94C30883E0D6
:1029900066E040E00E94470B83E067E040E00E9471
:1029A000470BB0C0FE01E45BFF4F8081853361F4CB
:1029B0000E94A20985E292E00E94C30883E064E0DD
:1029C00041E00E94470B9EC0FE01E45BFF4F808107
:1029D000863361F40E94A20984E392E00E94C30856
:1029E00083E064E040E00E94470B8CC0FE01E45BA2
:1029F000FF4F8081873321F481E00E940A0D82C05D
:102A0000FE01E45BFF4F8081883321F482E00E9465
:102A10000A0D78C00E94A20983E492E00E94C308D4
:102A200080E090E0AAEFB4E48B879C87AD87BE87F7
:102A30006B857C858D859E8520E030E04AEF54E4EF
:102A40000E941F02DC01CB018F839887A987BA8778
:102A50006F81788589859A8520E030E040E85FE3E2
:102A60000E94790388232CF481E090E09E838D837B
:102A70003FC06F81788589859A8520E03FEF4FE7D9
:102A800057E40E94190318164CF56B857C858D85DB
:102A90009E8520E030E040E251E40E941F02DC010C
:102AA000CB01BC01CD010E944900DC01CB019E831A
:102AB0008D830FC088EC90E09C838B838B819C81FD
:102AC0000197F1F79C838B838D819E8101979E8373
:102AD0008D838D819E81009769F714C06F81788501
:102AE00089859A850E944900DC01CB019E838D83F4
:102AF0008D819E819A83898389819A810197F1F7DB
:102B00009A83898380912403882309F071CDC75A61
:102B1000DF4F0FB6F894DEBF0FBECDBFCF91DF9170
:102B20001F910F9108950F931F93DF93CF93CDB70C
:102B3000DEB7C455D0400FB6F894DEBF0FBECDBF90
:102B400083E065E041E00E94470B83E063E041E001
:102B50000E94470BFE01EF5AFF4F80E090E0A8E48F
:102B6000B3E480839183A283B3838E01035B1F4F01
:102B7000FE01EF5AFF4F608171818281938120E0D5
:102B800030E04AEF54E40E941F02DC01CB01F8015F
:102B900080839183A283B383FE01E35BFF4F608157
:102BA00071818281938120E030E040E85FE30E9400
:102BB0007903882344F4FE01E55BFF4F81E090E058
:102BC0009183808364C0FE01E35BFF4F608171816C
:102BD0008281938120E03FEF4FE757E40E94190381
:102BE00018160CF043C0FE01EF5AFF4F608171814F
:102BF0008281938120E030E040E251E40E941F0294
:102C0000DC01CB018E01055B1F4FBC01CD010E9491
:102C10004900DC01CB01F801918380831FC0FE01D4
:102C2000E75BFF4F88EC90E091838083FE01E75BD8
:102C3000FF4F808191810197F1F7FE01E75BFF4F24
:102C400091838083DE01A55BBF4FFE01E55BFF4FF3
:102C500080819181019711969C938E93FE01E55B93
:102C6000FF4F808191810097D1F627C08E01055BCF
:102C70001F4FFE01E35BFF4F608171818281938171
:102C80000E944900DC01CB01F80191838083DE01C1
:102C9000A95BBF4FFE01E55BFF4F808191818D9362
:102CA0009C93FE01E95BFF4F808191810197F1F7D1
:102CB000FE01E95BFF4F9183808383E065E040E0A4
:102CC0000E94470B83E063E040E00E94470BFE0157
:102CD000ED5BFF4F80E090E0A8E4B3E48083918354
:102CE000A283B3838E01015C1F4FFE01ED5BFF4F9A
:102CF000608171818281938120E030E04AEF54E469
:102D00000E941F02DC01CB01F80180839183A28322
:102D1000B383FE01FF96608171818281938120E0FF
:102D200030E040E85FE30E94790388232CF481E0DF
:102D300090E09EAF8DAF46C0FE01FF96608171812D
:102D40008281938120E03FEF4FE757E40E9419030F
:102D5000181664F5FE01ED5BFF4F60817181828181
:102D6000938120E030E040E251E40E941F02DC0148
:102D7000CB01BC01CD010E944900DC01CB019EAF1B
:102D80008DAF0FC088EC90E09CAF8BAF8BAD9CAD4E
:102D90000197F1F79CAF8BAF8DAD9EAD01979EAFC4
:102DA0008DAF8DAD9EAD009769F716C0FE01FF9601
:102DB00060817181828193810E944900DC01CB0195
:102DC0009EAF8DAF8DAD9EAD9AAF89AF89AD9AADF7
:102DD0000197F1F79AAF89AF83E065E041E00E9487
:102DE000470B83E063E041E00E94470B80E090E006
:102DF000A8E4B3E48DAB9EABAFABB8AF6DA97EA931
:102E00008FA998AD20E030E04AEF54E40E941F0201
:102E1000DC01CB0189AB9AABABABBCAB69A97AA99E
:102E20008BA99CA920E030E040E85FE30E94790391
:102E300088232CF481E090E098AB8FA73FC069A96C
:102E40007AA98BA99CA920E03FEF4FE757E40E94A5
:102E5000190318164CF56DA97EA98FA998AD20E02D
:102E600030E040E251E40E941F02DC01CB01BC01D2
:102E7000CD010E944900DC01CB0198AB8FA70FC0A8
:102E800088EC90E09EA78DA78DA59EA50197F1F7F0
:102E90009EA78DA78FA598A9019798AB8FA78FA5FF
:102EA00098A9009769F714C069A97AA98BA99CA968
:102EB0000E944900DC01CB0198AB8FA78FA598A990
:102EC0009CA78BA78BA59CA50197F1F79CA78BA727
:102ED00083E065E040E00E94470B83E063E040E070
:102EE0000E94470B80E090E0A8E4B3E48FA398A78A
:102EF000A9A7BAA76FA178A589A59AA520E030E077
:102F00004AEF54E40E941F02DC01CB018BA39CA377
:102F1000ADA3BEA36BA17CA18DA19EA120E030E05A
:102F200040E85FE30E94790388232CF481E090E07D
:102F30009AA389A33FC06BA17CA18DA19EA120E093
:102F40003FEF4FE757E40E94190318164CF56FA1A5
:102F500078A589A59AA520E030E040E251E40E94DE
:102F60001F02DC01CB01BC01CD010E944900DC0144
:102F7000CB019AA389A30FC088EC90E098A38F8F10
:102F80008F8D98A10197F1F798A38F8F89A19AA1AE
:102F900001979AA389A389A19AA1009769F714C000
:102FA0006BA17CA18DA19EA10E944900DC01CB01F7
:102FB0009AA389A389A19AA19E8F8D8F8D8D9E8DB5
:102FC0000197F1F79E8F8D8F83E065E041E00E94CD
:102FD000470B83E063E041E00E94470B80E090E014
:102FE000AAEFB3E4898F9A8FAB8FBC8F698D7A8DEE
:102FF0008B8D9C8D20E030E04AEF54E40E941F024C
:10300000DC01CB018D8B9E8BAF8BB88F6D897E8958
:103010008F89988D20E030E040E85FE30E947903DB
:1030200088232CF481E090E09C8B8B8B3FC06D89D2
:103030007E898F89988D20E03FEF4FE757E40E940B
:10304000190318164CF5698D7A8D8B8D9C8D20E0B7
:1030500030E040E251E40E941F02DC01CB01BC01E0
:10306000CD010E944900DC01CB019C8B8B8B0FC0F2
:1030700088EC90E09A8B898B89899A890197F1F77E
:103080009A8B898B8B899C8901979C8B8B8B8B89E5
:103090009C89009769F714C06D897E898F89988D06
:1030A0000E944900DC01CB019C8B8B8B8B899C8916
:1030B000988B8F878F8598890197F1F7988B8F87E9
:1030C00083E065E040E00E94470B83E063E040E07E
:1030D0000E94470B80E090E0A8E4B3E48B879C87D4
:1030E000AD87BE876B857C858D859E8520E030E031
:1030F0004AEF54E40E941F02DC01CB018F839887C2
:10310000A987BA876F81788589859A8520E030E024
:1031100040E85FE30E94790388232CF481E090E08B
:103120009E838D833FC06F81788589859A8520E055
:103130003FEF4FE757E40E94190318164CF56B85D3
:103140007C858D859E8520E030E040E251E40E9440
:103150001F02DC01CB01BC01CD010E944900DC0152
:10316000CB019E838D830FC088EC90E09C838B8382
:103170008B819C810197F1F79C838B838D819E814C
:1031800001979E838D838D819E81009769F714C07E
:103190006F81788589859A850E944900DC01CB0181
:1031A0009E838D838D819E819A83898389819A8173
:1031B0000197F1F79A838983CC5ADF4F0FB6F894C1
:1031C000DEBF0FBECDBFCF91DF911F910F9108954C
:1031D000AA1BBB1B51E107C0AA1FBB1FA617B7073D
:1031E00010F0A61BB70B881F991F5A95A9F7809559
:1031F0009095BC01CD0108952F923F924F925F921E
:103200006F927F928F929F92AF92BF92CF92DF92F6
:10321000EF92FF920F931F93CF93DF93CDB7DEB75B
:10322000CA1BDB0B0FB6F894DEBF0FBECDBF0994EF
:103230002A88398848885F846E847D848C849B8446
:10324000AA84B984C884DF80EE80FD800C811B8154
:10325000AA81B981CE0FD11D0FB6F894DEBF0FBE83
:0A326000CDBFED010895F894FFCFF3
:10326A002020202020202020202020202020202054
:10327A0020202020202020202000456E7465207503
:10328A007365726E616D6500456E7465722054686F
:10329A00652055736572204E616D650D0A000D0A31
:1032AA00757365726E616D65206E6F7420666F75D9
:1032BA006E640D0A00456E746572205061737377EF
:1032CA00617264007472696573203A000D0A456E72
:1032DA0074657220596F75722050617373776172C9
:1032EA00640D0A0077656C636F6D65000D0A77657A
:1032FA006C636F6D650D0A00414C41524D00777247
:10330A006F6E672070617373776F7264000D0A6362
:10331A00686F6F73653A0D0A003120666F72206F0D
:10332A0070656E2074686520646F6F72000D0A0004
:10333A003220666F7220636C6F7365207468652033
:10334A00646F6F72003320666F72206F70656E2033
:10335A00746865206C69676874003420666F72202F
:10336A00636C6F736520746865206C6967687400A4
:10337A003520666F72206F70656E207468652066EE
:10338A00616E003620666F7220636C6F73652074FD
:10339A0068652066616E003720666F722061646A14
:1033AA00757374206272696768746E657373003826
:1033BA0020666F722061646A7573742066616E207C
:1033CA0073706565640063686F6F73653A316F7215
:1033DA00326F723300346F72356F72366F72376FB5
:1033EA0072380054686520646F6F72206F70656E62
:1033FA0065640054686520646F6F7220636C6F7334
:10340A00656400546865206C69676874206F70652C
:10341A006E656400546865206C6967687420636C23
:10342A006F736564005468652066616E206F70650D
:10343A006E6564005468652066616E20636C6F7304
:10344A0065640057726F6E672063686F69736520E1
:10345A0021210000000000000000004142444F000A
:10346A000000000000313131310000000000004846
:10347A00414E590000000000003232323200000092
:10348A000000004245424F00000000000033333381
:10349A0033000000000000484F44410000000000D3
:1034AA00003434343400000000000045594144001F
:1034BA0000000000003535353500000000000059D5
:1034CA004F55534546000000003636363600000098
:1034DA00000000414F554600000000000037373712
:1034EA00370000000000004153454D000000000075
:1034FA0000383838380000000000005A414B5900A3
:10350A00000000000039393939000000000000418C
:10351A00484D4544000000000031313232000000BD
:04352A00000000009D
:00000001FF
