:100000000C942A000C9447000C9447000C94470071
:100010000C9447000C9447000C9447000C94470044
:100020000C9447000C9447000C9447000C94470034
:100030000C9447000C9447000C9447000C94470024
:100040000C9447000C9447000C9447000C94470014
:100050000C94470011241FBECFE5D8E0DEBFCDBF12
:1000600013E0A0E6B0E0EAEBFDE202C005900D92DD
:10007000AA30B107D9F713E0AAE0B3E001C01D929E
:10008000AB30B107E1F70E942F0F0C94DB160C94F4
:100090000000EF92FF920F931F937B018C0120E0F1
:1000A00030E040E05FE40E94490388238CF0C801FF
:1000B000B70120E030E040E05FE40E94C1010E940F
:1000C000A9039B01AC01205030404040504806C07D
:1000D000C801B7010E94A9039B01AC01B901CA0183
:1000E0001F910F91FF90EF900895A0E0B0E0EBE733
:1000F000F0E00C94A416DC012B01FA019C919230E3
:1001000008F439C1EB018881823008F433C194309E
:1001100069F4843009F02FC111969C91119789815F
:10012000981709F428C1AAE3B2E025C1843009F484
:1001300021C18230A9F4923009F01DC19A01AD01AC
:1001400088E0EA010990AE01E90109929E0181501F
:10015000C1F7E201898111969C918923818308C1AD
:10016000923009F407C112962D903C901397EB0141
:100170008A819B811496AD90BD90CD90DC901797AD
:10018000EC80FD800E811F819101281B390BB90184
:1001900037FF04C066277727621B730B6032710537
:1001A0000CF061C0121613066CF537014801062EDB
:1001B00004C096948794779467940A94D2F721E0C8
:1001C00030E040E050E004C0220F331F441F551FB1
:1001D0006A95D2F721503040404050402E213F21B7
:1001E00040235123211531054105510521F021E01E
:1001F00030E040E050E079018A01E628F72808293C
:1002000019293CC0232BD1F1260E371E350146019A
:10021000062E04C096948794779467940A94D2F734
:1002200021E030E040E050E004C0220F331F441FC3
:10023000551F6A95D2F721503040404050402A2146
:100240003B214C215D21211531054105510521F04E
:1002500021E030E040E050E059016A01A628B728CB
:10026000C828D9280BC0821593052CF01C01AA249C
:10027000BB24650103C0EE24FF24870111969C91E5
:10028000D20111968C91981709F445C0992339F041
:10029000A80197012A193B094C095D0906C0A6016E
:1002A00095012E193F09400B510B57FD08C01182D3
:1002B0003382228224833583468357831DC081E0A5
:1002C00081833382228288279927DC01821B930B4A
:1002D000A40BB50B84839583A683B7830DC0220F2F
:1002E000331F441F551F24833583468357838281E0
:1002F000938101979383828324813581468157813D
:10030000DA01C9010197A109B1098F5F9F4FAF4F72
:10031000BF4328F30BC0918333822282EA0CFB1C7B
:100320000C1D1D1DE482F5820683178383E0808304
:10033000248135814681578157FF1AC0C901AA27F8
:1003400097FDA095BA2F81709070A070B0705695EF
:10035000479537952795822B932BA42BB52B848318
:100360009583A683B7838281938101969383828349
:10037000DF0101C0D201CD01CDB7DEB7E2E10C94BF
:10038000C016A0E2B0E0E7ECF1E00C94B01669838F
:100390007A838B839C832D833E834F835887E9E048
:1003A000EE2EF12CEC0EFD1ECE010196B7010E943F
:1003B000D2048E010F5E1F4FCE010596B8010E9438
:1003C000D2048A8991E089278A8BC701B801AE01DE
:1003D000475E5F4F0E9475000E94FD03A096E6E015
:1003E0000C94CC16A0E2B0E0E8EFF1E00C94B0166B
:1003F00069837A838B839C832D833E834F835887C5
:10040000F9E0EF2EF12CEC0EFD1ECE010196B701A6
:100410000E94D2048E010F5E1F4FCE010596B801D7
:100420000E94D204C701B801AE01475E5F4F0E942F
:1004300075000E94FD03A096E6E00C94CC16A0E2A5
:10044000B0E0E5E2F2E00C94A41669837A838B8332
:100450009C832D833E834F835887CE010196BE0136
:10046000675F7F4F0E94D204CE010596BE016F5E8A
:100470007F4F0E94D2049985923088F0898982301A
:10048000C8F0943019F4823051F404C0843029F457
:10049000923081F48AE392E0C6C0923049F420E0C1
:1004A0009A858A89981321E02A87CE010996BBC0D4
:1004B000823049F420E09A858A89981321E02A8BBA
:1004C000CE014196B0C02D843E844F8458886D88FB
:1004D0007E888F88988CEE24FF248701AA24BB2471
:1004E000650140E050E060E070E0E0E0F0E0C10174
:1004F00081709070892BE9F0E60CF71C081D191D1E
:100500009A01AB012A0D3B1D4C1D5D1D80E090E062
:10051000A0E0B0E0E614F7040805190520F481E036
:1005200090E0A0E0B0E0BA01A901480F591F6A1F8E
:100530007B1FAA0CBB1CCC1CDD1C97FE08C081E0F5
:1005400090E0A0E0B0E0A82AB92ACA2ADB2A3196B6
:10055000E032F10549F0660C771C881C991C569412
:10056000479437942794C3CFFA85EA892B893C892D
:100570008B859C85280F391F2E5F3F4F17C0CA01FE
:1005800081709070892B61F016950795F794E79428
:1005900080E090E0A0E0B0E8E82AF92A0A2B1B2BC3
:1005A00076956795579547952F5F3F4F77FDE7CF36
:1005B0000CC0440F551F661F771F17FD4160EE0CDE
:1005C000FF1C001F111F21503040403090E05907A0
:1005D00090E0690790E4790760F32B8F3C8FDB0193
:1005E000CA018F779070A070B07080349105A1051A
:1005F000B10561F447FD0AC0E114F10401051105DC
:1006000029F0405C5F4F6F4F7F4F40781A8EFE1786
:1006100011F081E08A8F4D8F5E8F6F8F78A383E01A
:10062000898FCE0149960E94FD03A096E2E10C94C9
:10063000C016A8E1B0E0EFE1F3E00C94B0166983D6
:100640007A838B839C832D833E834F83588789E0F5
:10065000E82EF12CEC0EFD1ECE010196B7010E9492
:10066000D2048E010F5E1F4FCE010596B8010E9485
:10067000D2048985823040F08989823028F0C70110
:10068000B8010E944A0501C08FEF6896E6E00C941D
:10069000CC16A8E1B0E0EFE4F3E00C94B016698367
:1006A0007A838B839C832D833E834F83588789E095
:1006B000E82EF12CEC0EFD1ECE010196B7010E9432
:1006C000D2048E010F5E1F4FCE010596B8010E9425
:1006D000D2048985823040F08989823028F0C701B0
:1006E000B8010E944A0501C08FEF6896E6E00C94BD
:1006F000CC16A8E1B0E0EFE7F3E00C94B016698304
:100700007A838B839C832D833E834F83588789E034
:10071000E82EF12CEC0EFD1ECE010196B7010E94D1
:10072000D2048E010F5E1F4FCE010596B8010E94C4
:10073000D2048985823040F08989823028F0C7014F
:10074000B8010E944A0501C081E06896E6E00C9479
:10075000CC16ACE0B0E0EFEAF3E00C94B416698399
:100760007A838B839C83CE010196BE016B5F7F4FA2
:100770000E94D2048D81823061F1823050F1843048
:1007800021F48E81882351F12EC02F81388537FDC9
:1007900020C06E812F3131051CF06623F9F023C093
:1007A0008EE190E0821B930B29853A854B855C8511
:1007B00004C056954795379527958A95D2F76623B5
:1007C000B1F050954095309521953F4F4F4F5F4F79
:1007D0000EC020E030E040E050E009C02FEF3FEFD6
:1007E0004FEF5FE704C020E030E040E050E8B9019F
:1007F000CA012C96E2E00C94D016DF92EF92FF92A1
:100800000F931F93FC01E480F58006811781D1804E
:100810008081823048F480E090E0A0E1B0E0E82AF6
:10082000F92A0A2B1B2BA5C0843009F49FC0823003
:1008300021F4EE24FF24870105C0E114F104010531
:10084000110519F4E0E0F0E096C0628173819FEF3A
:10085000623879070CF05BC022E83FEF261B370BAC
:100860002A3131052CF020E030E040E050E02AC091
:10087000B801A701022E04C0769567955795479554
:100880000A94D2F781E090E0A0E0B0E004C0880FC5
:10089000991FAA1FBB1F2A95D2F70197A109B10979
:1008A0008E219F21A023B1230097A105B10521F03E
:1008B00081E090E0A0E0B0E09A01AB01282B392B59
:1008C0004A2B5B2BDA01C9018F779070A070B07052
:1008D00080349105A105B10539F427FF09C0205CDA
:1008E0003F4F4F4F5F4F04C0215C3F4F4F4F5F4F13
:1008F000E0E0F0E02030A0E03A07A0E04A07A0E402
:100900005A0710F0E1E0F0E079018A0127C0603871
:10091000710564F5FB01E158FF4FD801C7018F77DE
:100920009070A070B07080349105A105B10539F4C4
:10093000E7FE0DC080E490E0A0E0B0E004C08FE3EB
:1009400090E0A0E0B0E0E80EF91E0A1F1B1F17FFA1
:1009500005C016950795F794E794319687E01695AC
:100960000795F794E7948A95D1F705C0EE24FF2404
:100970008701EFEFF0E06E2F679566276795902F60
:100980009F77D794DD24D7948E2F8695492F462BB9
:10099000582F5D29B701CA011F910F91FF90EF9069
:1009A000DF900895FC01DB01408151812281622F9B
:1009B0006F7770E0221F2227221F9381892F880FD3
:1009C000822B282F30E0991F9927991F11969C930D
:1009D000119721153105A9F54115510561057105DD
:1009E00011F482E037C082E89FEF13969C938E93B8
:1009F00012979A01AB0167E0220F331F441F551F66
:100A00006A95D1F783E08C930DC0220F331F441FEA
:100A1000551F12968D919C911397019713969C9355
:100A20008E931297203080E0380780E0480780E4FA
:100A3000580758F314962D933D934D935C93179755
:100A400008952F3F310579F4411551056105710570
:100A500019F484E08C93089564FF03C081E08C93C3
:100A600012C01C9210C02F57304013963C932E9307
:100A7000129783E08C9387E0440F551F661F771F02
:100A80008A95D1F7706414964D935D936D937C9322
:100A9000179708951F93DC01FB019C91923008F495
:100AA00047C08081823008F443C0943051F41196DD
:100AB0001C91843099F58181682F70E0611B710968
:100AC0003FC0843021F0923031F48230B9F181811D
:100AD000882389F12DC011961C9111978230F1F075
:100AE00081811817D9F412962D913C911397828128
:100AF00093818217930794F028173907BCF0149656
:100B00008D919D910D90BC91A02D248135814681C0
:100B10005781281739074A075B0718F4112341F05A
:100B20000AC082179307A407B50740F4112319F0F0
:100B300061E070E005C06FEF7FEF02C060E070E041
:100B4000CB011F910895DF93CF93CDB7DEB72F97D9
:100B50000FB6F894DEBF0FBECDBF8F8783E060E095
:100B600041E00E943A0B83E061E040E00E943A0BD2
:100B700081E06F850E94F80A83E062E041E00E9414
:100B80003A0B80E090E0A0E8BFE38B879C87AD87BD
:100B9000BE876B857C858D859E8520E030E04AEFA1
:100BA00054E40E941F02DC01CB018F839887A98740
:100BB000BA876F81788589859A8520E030E040E8A2
:100BC0005FE30E94790388232CF481E090E09E8308
:100BD0008D833FC06F81788589859A8520E03FEFBE
:100BE0004FE757E40E94190318164CF56B857C8576
:100BF0008D859E8520E030E040E251E40E941F0296
:100C0000DC01CB01BC01CD010E944900DC01CB011C
:100C10009E838D830FC088EC90E09C838B838B81B7
:100C20009C810197F1F79C838B838D819E81019735
:100C30009E838D838D819E81009769F714C06F819B
:100C4000788589859A850E944900DC01CB019E83C5
:100C50008D838D819E819A83898389819A81019771
:100C6000F1F79A83898383E062E040E00E943A0BC7
:100C70002F960FB6F894DEBF0FBECDBFCF91DF9198
:100C80000895DF93CF93CDB7DEB72F970FB6F894C3
:100C9000DEBF0FBECDBF8F8783E060E040E00E94E3
:100CA0003A0B83E061E040E00E943A0B81E06F85FF
:100CB0000E94F80A83E062E041E00E943A0B80E083
:100CC00090E0A0E8BFE38B879C87AD87BE876B85EC
:100CD0007C858D859E8520E030E04AEF54E40E94BB
:100CE0001F02DC01CB018F839887A987BA876F81A8
:100CF000788589859A8520E030E040E85FE30E94AE
:100D0000790388232CF481E090E09E838D833FC09B
:100D10006F81788589859A8520E03FEF4FE757E41A
:100D20000E94190318164CF56B857C858D859E8570
:100D300020E030E040E251E40E941F02DC01CB01E0
:100D4000BC01CD010E944900DC01CB019E838D8353
:100D50000FC088EC90E09C838B838B819C810197F2
:100D6000F1F79C838B838D819E8101979E838D8378
:100D70008D819E81009769F714C06F817885898580
:100D80009A850E944900DC01CB019E838D838D8171
:100D90009E819A83898389819A810197F1F79A8349
:100DA000898383E062E040E00E943A0B2F960FB601
:100DB000F894DEBF0FBECDBFCF91DF910895DF93D2
:100DC000CF93CDB7DEB7E8970FB6F894DEBF0FBE6E
:100DD000CDBF80E090E0A0E2B2E48DAB9EABAFABC4
:100DE000B8AF6DA97EA98FA998AD20E030E04AEF99
:100DF00054E40E941F02DC01CB0189AB9AABABAB80
:100E0000BCAB69A97AA98BA99CA920E030E040E895
:100E10005FE30E94790388232CF481E090E098AB93
:100E20008FA73FC069A97AA98BA99CA920E03FEFB1
:100E30004FE757E40E94190318164CF56DA97EA9D7
:100E40008FA998AD20E030E040E251E40E941F02FB
:100E5000DC01CB01BC01CD010E944900DC01CB01CA
:100E600098AB8FA70FC088EC90E09EA78DA78DA5AB
:100E70009EA50197F1F79EA78DA78FA598A9019729
:100E800098AB8FA78FA598A9009769F714C069A997
:100E90007AA98BA99CA90E944900DC01CB0198ABDF
:100EA0008FA78FA598A99CA78BA78BA59CA5019719
:100EB000F1F79CA78BA788E30E94410680E090E0B1
:100EC000A0E8BFE38FA398A7A9A7BAA76FA178A5A9
:100ED00089A59AA520E030E04AEF54E40E941F0261
:100EE000DC01CB018BA39CA3ADA3BEA36BA17CA112
:100EF0008DA19EA120E030E040E85FE30E947903ED
:100F000088232CF481E090E09AA389A33FC06BA1D1
:100F10007CA18DA19EA120E03FEF4FE757E40E9406
:100F2000190318164CF56FA178A589A59AA520E09C
:100F300030E040E251E40E941F02DC01CB01BC0121
:100F4000CD010E944900DC01CB019AA389A30FC007
:100F500088EC90E098A38F8F8F8D98A10197F1F77F
:100F600098A38F8F89A19AA101979AA389A389A198
:100F70009AA1009769F714C06BA17CA18DA19EA1D5
:100F80000E944900DC01CB019AA389A389A19AA1FF
:100F90009E8F8D8F8D8D9E8D0197F1F79E8F8D8FFA
:100FA0008CE00E94410680E090E0A0E8BFE3898FDA
:100FB0009A8FAB8FBC8F698D7A8D8B8D9C8D20E045
:100FC00030E04AEF54E40E941F02DC01CB018D8B1C
:100FD0009E8BAF8BB88F6D897E898F89988D20E02D
:100FE00030E040E85FE30E94790388232CF481E03D
:100FF00090E09C8B8B8B3FC06D897E898F89988D0B
:1010000020E03FEF4FE757E40E94190318164CF514
:10101000698D7A8D8B8D9C8D20E030E040E251E42B
:101020000E941F02DC01CB01BC01CD010E944900DE
:10103000DC01CB019C8B8B8B0FC088EC90E09A8BF2
:10104000898B89899A890197F1F79A8B898B8B898A
:101050009C8901979C8B8B8B8B899C89009769F766
:1010600014C06D897E898F89988D0E944900DC01AA
:10107000CB019C8B8B8B8B899C89988B8F878F85E1
:1010800098890197F1F7988B8F8781E00E9441063C
:1010900080E090E0A0E0B0E48B879C87AD87BE87BE
:1010A0006B857C858D859E8520E030E04AEF54E499
:1010B0000E941F02DC01CB018F839887A987BA8722
:1010C0006F81788589859A8520E030E040E85FE38C
:1010D0000E94790388232CF481E090E09E838D8325
:1010E0003FC06F81788589859A8520E03FEF4FE783
:1010F00057E40E94190318164CF56B857C858D8585
:101100009E8520E030E040E251E40E941F02DC01B5
:10111000CB01BC01CD010E944900DC01CB019E83C3
:101120008D830FC088EC90E09C838B838B819C81A6
:101130000197F1F79C838B838D819E8101979E831C
:101140008D838D819E81009769F714C06F817885AA
:1011500089859A850E944900DC01CB019E838D839D
:101160008D819E819A83898389819A810197F1F784
:101170009A838983E8960FB6F894DEBF0FBECDBF81
:10118000CF91DF910895DF93CF9300D00F92CDB729
:10119000DEB79B838A8319820EC08981282F30E0B5
:1011A0008A819B81FC01E20FF31F80810E94A305CD
:1011B00089818F5F89838981282F30E08A819B8193
:1011C000FC01E20FF31F8081882339F70F900F9005
:1011D0000F90CF91DF910895DF93CF93CDB7DEB716
:1011E0002E970FB6F894DEBF0FBECDBF9E878D87BA
:1011F0001A828D859E85009711F580E30E94A305D4
:1012000022C08A81E82FF0E08D859E852AE030E0BB
:10121000B9010E949016282F205DCE010396E80F99
:10122000F91F20838D859E852AE030E0B9010E9458
:101230009016CB019E878D878A818F5F8A838D85EB
:101240009E850097F1F68A81898311C08981882F54
:1012500090E09C0121503040CE010396FC01E20F4A
:10126000F31F80810E94A305898181508983898130
:10127000882361F72E960FB6F894DEBF0FBECDBF60
:10128000CF91DF910895DF93CF9300D00F92CDB728
:10129000DEB78A836B838A81882319F48B818983E3
:1012A00006C08A81813019F48B81805C89838981B1
:1012B00080580E9441060F900F900F90CF91DF91C0
:1012C0000895DF93CF93CDB7DEB727970FB6F89485
:1012D000DEBF0FBECDBF9C838B836D834E832F8378
:1012E00019828D81882F90E0880F991F880F991F90
:1012F000880F991F8A838A81805C0E944106198227
:101300000EC08981282F30E08B819C81FC01E20F87
:10131000F31F80810E94A30589818F5F8983898162
:10132000883078F38E816F810E9443098D810E94FD
:10133000A30527960FB6F894DEBF0FBECDBFCF91A1
:10134000DF910895DF93CF93CDB7DEB781E00E94A0
:10135000410680E060E00E944309CF91DF9108954B
:10136000DF93CF9300D000D0CDB7DEB789836A83F7
:101370008981282F30E03C832B838B819C818230B4
:101380009105D9F02B813C812330310534F48B81D8
:101390009C818130910561F01EC02B813C812330FE
:1013A000310581F08B819C818430910581F013C0DF
:1013B000EAE3F0E08A8180830EC0E7E3F0E08A810F
:1013C000808309C0E4E3F0E08A81808304C0E1E324
:1013D000F0E08A8180830F900F900F900F90CF9153
:1013E000DF910895DF93CF93CDB7DEB727970FB680
:1013F000F894DEBF0FBECDBF89836A834B838A8199
:10140000883008F0ECC08B81813009F070C0898190
:10141000282F30E03F832E838E819F81823091057B
:1014200051F12E813F812330310534F48E819F812B
:101430008130910561F0D3C02E813F812330310589
:1014400071F18E819F8184309105E9F1C8C0AAE3D2
:10145000B0E0EAE3F0E08081482F8A81282F30E075
:1014600081E090E0022E02C0880F991F0A94E2F7F3
:10147000842B8C93B4C0A7E3B0E0E7E3F0E0808175
:10148000482F8A81282F30E081E090E0022E02C0B0
:10149000880F991F0A94E2F7842B8C93A0C0A4E3D1
:1014A000B0E0E4E3F0E08081482F8A81282F30E02B
:1014B00081E090E0022E02C0880F991F0A94E2F7A3
:1014C000842B8C938CC0A1E3B0E0E1E3F0E0808159
:1014D000482F8A81282F30E081E090E0022E02C060
:1014E000880F991F0A94E2F7842B8C9378C08B8124
:1014F000882309F074C08981282F30E03D832C8334
:101500008C819D818230910561F12C813D81233058
:10151000310534F48C819D818130910569F05FC083
:101520002C813D812330310589F18C819D8184306E
:10153000910509F440C053C0AAE3B0E0EAE3F0E04B
:101540008081482F8A81282F30E081E090E0022EB0
:1015500002C0880F991F0A94E2F7809584238C9328
:101560003EC0A7E3B0E0E7E3F0E08081482F8A8146
:10157000282F30E081E090E0022E02C0880F991FF2
:101580000A94E2F7809584238C9329C0A4E3B0E009
:10159000E4E3F0E08081482F8A81282F30E081E069
:1015A00090E0022E02C0880F991F0A94E2F78095FE
:1015B00084238C9314C0A1E3B0E0E1E3F0E08081E8
:1015C000482F8A81282F30E081E090E0022E02C06F
:1015D000880F991F0A94E2F7809584238C932796AD
:1015E0000FB6F894DEBF0FBECDBFCF91DF91089547
:1015F000DF93CF9300D000D0CDB7DEB789836A8365
:101600008981282F30E03C832B838B819C81823021
:101610009105D9F02B813C812330310534F48B8145
:101620009C818130910561F01EC02B813C8123306B
:10163000310581F08B819C818430910581F013C04C
:10164000EBE3F0E08A8180830EC0E8E3F0E08A817A
:10165000808309C0E5E3F0E08A81808304C0E2E38F
:10166000F0E08A8180830F900F900F900F90CF91C0
:10167000DF910895DF93CF93CDB7DEB727970FB6ED
:10168000F894DEBF0FBECDBF89836A834B838A8106
:10169000883008F0ECC08B81813009F070C08981FE
:1016A000282F30E03F832E838E819F8182309105E9
:1016B00051F12E813F812330310534F48E819F8199
:1016C0008130910561F0D3C02E813F8123303105F7
:1016D00071F18E819F8184309105E9F1C8C0ABE33F
:1016E000B0E0EBE3F0E08081482F8A81282F30E0E2
:1016F00081E090E0022E02C0880F991F0A94E2F761
:10170000842B8C93B4C0A8E3B0E0E8E3F0E08081E0
:10171000482F8A81282F30E081E090E0022E02C01D
:10172000880F991F0A94E2F7842B8C93A0C0A5E33D
:10173000B0E0E5E3F0E08081482F8A81282F30E097
:1017400081E090E0022E02C0880F991F0A94E2F710
:10175000842B8C938CC0A2E3B0E0E2E3F0E08081C4
:10176000482F8A81282F30E081E090E0022E02C0CD
:10177000880F991F0A94E2F7842B8C9378C08B8191
:10178000882309F074C08981282F30E03D832C83A1
:101790008C819D818230910561F12C813D812330C6
:1017A000310534F48C819D818130910569F05FC0F1
:1017B0002C813D812330310589F18C819D818430DC
:1017C000910509F440C053C0ABE3B0E0EBE3F0E0B7
:1017D0008081482F8A81282F30E081E090E0022E1E
:1017E00002C0880F991F0A94E2F7809584238C9396
:1017F0003EC0A8E3B0E0E8E3F0E08081482F8A81B2
:10180000282F30E081E090E0022E02C0880F991F5F
:101810000A94E2F7809584238C9329C0A5E3B0E075
:10182000E5E3F0E08081482F8A81282F30E081E0D5
:1018300090E0022E02C0880F991F0A94E2F780956B
:1018400084238C9314C0A2E3B0E0E2E3F0E0808153
:10185000482F8A81282F30E081E090E0022E02C0DC
:10186000880F991F0A94E2F7809584238C9327961A
:101870000FB6F894DEBF0FBECDBFCF91DF910895B4
:10188000DF93CF9300D000D00F92CDB7DEB78A831D
:101890006B8319828B81883008F067C08A81282F7A
:1018A00030E03D832C834C815D814230510541F114
:1018B0008C819D818330910534F42C813D812130D0
:1018C000310561F052C04C815D814330510551F1C9
:1018D0008C819D8184309105B9F147C0E9E3F0E046
:1018E0008081282F30E08B81882F90E0A90102C0F1
:1018F000559547958A95E2F7CA018170898335C06D
:10190000E6E3F0E08081282F30E08B81882F90E0A3
:10191000A90102C0559547958A95E2F7CA018170E1
:10192000898323C0E3E3F0E08081282F30E08B81BE
:10193000882F90E0A90102C0559547958A95E2F756
:10194000CA018170898311C0E0E3F0E08081282F13
:1019500030E08B81882F90E0A90102C05595479512
:101960008A95E2F7CA018170898389810F900F906F
:101970000F900F900F90CF91DF910895DF93CF9349
:10198000CDB7DEB7ADE2B0E0EDE2F0E0808180619E
:101990008C93ADE2B0E0EDE2F0E0808181608C9369
:1019A000ADE2B0E0EDE2F0E0808182608C93AEE2E7
:1019B000B0E0EEE2F0E0808181608C93ADE2B0E0D7
:1019C000EDE2F0E0808180648C93CF91DF91089507
:1019D000DF93CF93CDB7DEB7ADE2B0E0EDE2F0E05C
:1019E00080818F7E8C93ADE2B0E0EDE2F0E080810B
:1019F00080648C93CF91DF910895DF93CF930F9202
:101A0000CDB7DEB78983EFE2F0E089818083EEE233
:101A1000F0E080818823DCF7EFE2F0E080810F9036
:101A2000CF91DF910895DF93CF93CDB7DEB7A3E5D4
:101A3000B0E0E3E5F0E0808188608C93A3E5B0E05E
:101A4000E3E5F0E0808180648C93A3E5B0E0E3E51A
:101A5000F0E0808180628C93A3E5B0E0E3E5F0E004
:101A600080818F7E8C93A3E5B0E0E3E5F0E0808198
:101A70008B7F8C93A3E5B0E0E3E5F0E080818260AA
:101A80008C93A3E5B0E0E3E5F0E0808181608C9386
:101A9000CF91DF910895DF93CF930F92CDB7DEB74B
:101AA0008983ECE5F0E0898180830F90CF91DF910D
:101AB0000895DF93CF93CDB7DEB7A5E4B0E0E5E4BA
:101AC000F0E0808188608C93A5E4B0E0E5E4F0E08C
:101AD000808180648C93A5E4B0E0E5E4F0E080814F
:101AE00080628C93A5E4B0E0E5E4F0E080818F7E35
:101AF0008C93A5E4B0E0E5E4F0E080818B7F8C93EB
:101B0000A3E5B0E0E3E5F0E0808182608C93A5E49A
:101B1000B0E0E5E4F0E0808181608C93CF91DF91CB
:101B20000895DF93CF930F92CDB7DEB78983E3E4B7
:101B3000F0E0898180830F90CF91DF910895DF934A
:101B4000CF93CDB7DEB7AFE4B0E0EFE4F0E0808153
:101B50008E7F8C93AFE4B0E0EFE4F0E080818260B0
:101B60008C93AEE4B0E0EEE4F0E0808188608C938A
:101B7000AEE4B0E0EEE4F0E0808180618C93AFE40D
:101B8000B0E0EFE4F0E0808180688C93AFE4B0E0F7
:101B9000EFE4F0E080818F7B8C93AEE4B0E0EEE484
:101BA000F0E080818E7F8C93AEE4B0E0EEE4F0E074
:101BB000808182608C93AEE4B0E0EEE4F0E080815E
:101BC0008B7F8C93CF91DF910895DF93CF9300D0DB
:101BD000CDB7DEB79A838983EAE4F0E089819A8100
:101BE000918380830F900F90CF91DF910895DF93C1
:101BF000CF9300D0CDB7DEB79A838983E6E4F0E0D7
:101C000089819A81918380830F900F90CF91DF918A
:101C10000895DF93CF9300D00F92CDB7DEB71B822C
:101C200083E390E09A838983E0E4F0E089819A81FC
:101C3000892F99278083E9E2F0E089818083ABE2F4
:101C4000B0E0EBE2F0E080818D7F8C938B818F7B25
:101C50008B838B818F7D8B838B818F7E8B838B811D
:101C600082608B838B8184608B83AAE2B0E0EAE29E
:101C7000F0E080818B7F8C938B81877F8B838B813E
:101C800080688B83E0E4F0E08B818083AAE2B0E09F
:101C9000EAE2F0E0808188608C93AAE2B0E0EAE2B8
:101CA000F0E0808180618C930F900F900F90CF9126
:101CB000DF910895DF93CF930F92CDB7DEB789837D
:101CC000EBE2F0E08081829586958770882F90E026
:101CD000817090700097A1F3ECE2F0E0898180833D
:101CE0000F90CF91DF910895DF93CF93CDB7DEB7FB
:101CF000EBE2F0E080818823DCF7ECE2F0E0808129
:101D0000CF91DF910895DF93CF9300D00F92CDB79D
:101D1000DEB79B838A8319820EC08981282F30E029
:101D20008A819B81FC01E20FF31F80810E945A0E81
:101D300089818F5F89838981282F30E08A819B8107
:101D4000FC01E20FF31F8081882339F70F900F9079
:101D50000F90CF91DF9108950F931F93DF93CF934F
:101D600000D00F92CDB7DEB79B838A831982898119
:101D7000282F30E08A819B818C01020F131F0E9463
:101D8000740EF80180830FC089818F5F89838981F8
:101D9000282F30E08A819B818C01020F131F0E9443
:101DA000740EF80180838981282F30E08A819B811D
:101DB000FC01E20FF31F8081803231F78981282FE7
:101DC00030E08A819B81FC01E20FF31F10820F90AB
:101DD0000F900F90CF91DF911F910F910895DF9396
:101DE000CF9300D000D000D0CDB7DEB79C838B83DB
:101DF0007E836D831A8281E089831CC08A81282FAB
:101E000030E08B819C81FC01E20FF31F40818A81CD
:101E1000282F30E08D819E81FC01E20FF31F80812D
:101E2000481731F481E089838A818F5F8A8302C0F9
:101E300019820BC08A81282F30E08D819E81FC01A0
:101E4000E20FF31F80818823C9F6898126960FB699
:101E5000F894DEBF0FBECDBFCF91DF910895DF9321
:101E6000CF93CDB7DEB7A6970FB6F894DEBF0FBEFF
:101E7000CDBF81E06FEF0E94B00983E06FEF0E9459
:101E8000B00984E067E041E00E94F20984E065E087
:101E900041E00E94F20984E060E040E00E94F20923
:101EA00084E061E041E00E94F20982E063E041E009
:101EB0000E94F20982E060E041E00E94F20982E0C3
:101EC00065E041E00E94F20982E064E041E00E94A6
:101ED000F20982E064E040E00E943A0B82E066E0B2
:101EE00040E00E94F20982E067E041E00E94F209CE
:101EF0000E94DF060E94090E0E949F0D80E29EE470
:101F00000E94F70D0E94BE0C0E94A20980E690E09C
:101F10000E94C3088FE690E00E94830E80E090E06C
:101F2000A8ECB2E4898F9A8FAB8FBC8F698D7A8DC4
:101F30008B8D9C8D20E030E04AEF54E40E941F021C
:101F4000DC01CB018D8B9E8BAF8BB88F6D897E8929
:101F50008F89988D20E030E040E85FE30E947903AC
:101F600088232CF481E090E09C8B8B8B3FC06D89A3
:101F70007E898F89988D20E03FEF4FE757E40E94DC
:101F8000190318164CF5698D7A8D8B8D9C8D20E088
:101F900030E040E251E40E941F02DC01CB01BC01B1
:101FA000CD010E944900DC01CB019C8B8B8B0FC0C3
:101FB00088EC90E09A8B898B89899A890197F1F74F
:101FC0009A8B898B8B899C8901979C8B8B8B8B89B6
:101FD0009C89009769F714C06D897E898F89988DD7
:101FE0000E944900DC01CB019C8B8B8B8B899C89E7
:101FF000988B8F878F8598890197F1F7988B8F87BA
:10200000CE014D960E94AC0E80E090E0A8ECB2E4C8
:102010008B879C87AD87BE876B857C858D859E85EC
:1020200020E030E04AEF54E40E941F02DC01CB01C3
:102030008F839887A987BA876F81788589859A85E4
:1020400020E030E040E85FE30E94790388232CF42D
:1020500081E090E09E838D833FC06F817885898584
:102060009A8520E03FEF4FE757E40E9419031816C6
:102070004CF56B857C858D859E8520E030E040E2C7
:1020800051E40E941F02DC01CB01BC01CD010E9482
:102090004900DC01CB019E838D830FC088EC90E06A
:1020A0009C838B838B819C810197F1F79C838B832D
:1020B0008D819E8101979E838D838D819E81009766
:1020C00069F714C06F81788589859A850E944900D7
:1020D000DC01CB019E838D838D819E819A838983D0
:1020E00089819A810197F1F79A838983CE014D9670
:1020F00022E432E0B9010E94EF0E882329F08CE43B
:1021000092E00E94081100CFCE014D9626E532E004
:10211000B9010E94EF0E882329F080E692E00E9428
:102120000811F2CECE014D962AE632E0B9010E94A6
:10213000EF0E882329F084E792E00E940811E4CE94
:10214000CE014D962EE732E0B9010E94EF0E8823B2
:1021500029F088E892E00E940811D6CECE014D9673
:1021600022E932E0B9010E94EF0E882329F08CE9C0
:1021700092E00E940811C8CECE014D9626EA32E0C8
:10218000B9010E94EF0E882329F080EB92E00E94B3
:102190000811BACECE014D962AEB32E0B9010E9469
:1021A000EF0E882329F084EC92E00E940811ACCE57
:1021B000CE014D962EEC32E0B9010E94EF0E88233D
:1021C00029F088ED92E00E9408119ECECE014D9636
:1021D000029622EE32E0B9010E94EF0E882329F028
:1021E0008CEE92E00E9408118FCECE014D9626EF24
:1021F00032E0B9010E94EF0E882329F080E093E0DD
:102200000E94081181CE85E890E00E94830E7CCE6A
:102210000F931F93DF93CF93CDB7DEB7C955D0404F
:102220000FB6F894DEBF0FBECDBFFE01E85AFF4FD8
:1022300091838083FE01E35BFF4F83E0808357C17E
:102240000E94A2098CE990E00E94C30881E090E01E
:1022500060E070E00E9443098BEA90E00E94C308AE
:1022600081E090E066E070E00E944309FE01E35BDC
:10227000FF4F8081882F90E00E94EC0883EB90E074
:102280000E94830EFE01ED5BFF4F80E090E0A8EC22
:10229000B2E480839183A283B3838E01015C1F4FDC
:1022A000FE01ED5BFF4F608171818281938120E0AF
:1022B00030E04AEF54E40E941F02DC01CB01F80138
:1022C00080839183A283B383FE01FF966081718135
:1022D0008281938120E030E040E85FE30E9479034F
:1022E00088232CF481E090E09EAF8DAF46C0FE01C4
:1022F000FF96608171818281938120E03FEF4FE7FB
:1023000057E40E941903181664F5FE01ED5BFF4FB8
:10231000608171818281938120E030E040E251E46C
:102320000E941F02DC01CB01BC01CD010E944900CB
:10233000DC01CB019EAF8DAF0FC088EC90E09CAF6D
:102340008BAF8BAD9CAD0197F1F79CAF8BAF8DAD93
:102350009EAD01979EAF8DAF8DAD9EAD009769F795
:1023600016C0FE01FF9660817181828193810E9477
:102370004900DC01CB019EAF8DAF8DAD9EAD9AAF14
:1023800089AF89AD9AAD0197F1F79AAF89AFCE01C8
:10239000825B9F4F0E94AC0ECE01825B9F4FFE017D
:1023A000E85AFF4F20813181B9010E94EF0E882346
:1023B00071F081E080930A030E94A2098BEC90E007
:1023C0000E94C30883ED90E00E94830E11C3DE01DA
:1023D000A35BBF4FFE01E35BFF4F808181508C9375
:1023E000FE01E35BFF4F8081882349F40E94A2092C
:1023F0008FED90E00E94C3080E940915FDCF0E9456
:10240000A20985EE90E00E94C30880E090E0A8E475
:10241000B3E48DAB9EABAFABB8AF6DA97EA98FA96E
:1024200098AD20E030E04AEF54E40E941F02DC0146
:10243000CB0189AB9AABABABBCAB69A97AA98BA931
:102440009CA920E030E040E85FE30E947903882304
:102450002CF481E090E098AB8FA73FC069A97AA9DE
:102460008BA99CA920E03FEF4FE757E40E94190396
:1024700018164CF56DA97EA98FA998AD20E030E023
:1024800040E251E40E941F02DC01CB01BC01CD01FE
:102490000E944900DC01CB0198AB8FA70FC088ECEC
:1024A00090E09EA78DA78DA59EA50197F1F79EA709
:1024B0008DA78FA598A9019798AB8FA78FA598A9ED
:1024C000009769F714C069A97AA98BA99CA90E94F1
:1024D0004900DC01CB0198AB8FA78FA598A99CA7D9
:1024E0008BA78BA59CA50197F1F79CA78BA7FE0155
:1024F000E35BFF4F8081882309F0A2CE79C2FE0101
:10250000E55BFF4F108284EF90E00E94830E80E035
:1025100091E00E94830E84E191E00E94830E87E1A6
:1025200091E00E94830E84E191E00E94830E8CE290
:1025300091E00E94830E84E191E00E94830E81E489
:1025400091E00E94830E84E191E00E94830E87E572
:1025500091E00E94830E84E191E00E94830E8AE65E
:1025600091E00E94830E84E191E00E94830E8EE749
:1025700091E00E94830E84E191E00E94830E86E93F
:1025800091E00E94830E84E191E00E94830E0E94FC
:10259000A2098DEA91E00E94C30881E090E060E02A
:1025A00070E00E9443098CEB91E00E94C3080E94F6
:1025B000740EFE01E45BFF4F8083FE01E45BFF4F7E
:1025C0008081813309F0A3C00E94A2098AEC91E0C6
:1025D0000E94C30882E060E041E00E943A0BFE01E5
:1025E000E75BFF4F8EEE92E09183808385C0FE0112
:1025F000E75BFF4F808191810E94E50D80E090E0D4
:10260000A0E8BFE38FA398A7A9A7BAA76FA178A551
:1026100089A59AA520E030E04AEF54E40E941F0209
:10262000DC01CB018BA39CA3ADA3BEA36BA17CA1BA
:102630008DA19EA120E030E040E85FE30E94790395
:1026400088232CF481E090E09AA389A33FC06BA17A
:102650007CA18DA19EA120E03FEF4FE757E40E94AF
:10266000190318164CF56FA178A589A59AA520E045
:1026700030E040E251E40E941F02DC01CB01BC01CA
:10268000CD010E944900DC01CB019AA389A30FC0B0
:1026900088EC90E098A38F8F8F8D98A10197F1F728
:1026A00098A38F8F89A19AA101979AA389A389A141
:1026B0009AA1009769F714C06BA17CA18DA19EA17E
:1026C0000E944900DC01CB019AA389A389A19AA1A8
:1026D0009E8F8D8F8D8D9E8D0197F1F79E8F8D8FA3
:1026E000DE01A75BBF4FFE01E75BFF4F8081918159
:1026F000019611969C938E93FE01E75BFF4F8081BC
:102700009181F5E08C3D9F0708F471CF71C1FE0106
:10271000E45BFF4F8081823309F09EC00E94A209D2
:102720008AED91E00E94C308FE01E95BFF4F8CED4A
:1027300095E09183808385C0FE01E95BFF4F808136
:1027400091810E94E50D80E090E0A0E8BFE3898FD1
:102750009A8FAB8FBC8F698D7A8D8B8D9C8D20E08D
:1027600030E04AEF54E40E941F02DC01CB018D8B64
:102770009E8BAF8BB88F6D897E898F89988D20E075
:1027800030E040E85FE30E94790388232CF481E085
:1027900090E09C8B8B8B3FC06D897E898F89988D53
:1027A00020E03FEF4FE757E40E94190318164CF55D
:1027B000698D7A8D8B8D9C8D20E030E040E251E474
:1027C0000E941F02DC01CB01BC01CD010E94490027
:1027D000DC01CB019C8B8B8B0FC088EC90E09A8B3B
:1027E000898B89899A890197F1F79A8B898B8B89D3
:1027F0009C8901979C8B8B8B8B899C89009769F7AF
:1028000014C06D897E898F89988D0E944900DC01F2
:10281000CB019C8B8B8B8B899C89988B8F878F8529
:1028200098890197F1F7988B8F87DE01A95BBF4FDD
:10283000FE01E95BFF4F80819181019711969C9386
:102840008E93FE01E95BFF4F8081918122E08F3EF4
:10285000920708F071CFCCC0FE01E45BFF4F80818E
:10286000833351F483E00E94FD0C0E94A2098AEE9A
:1028700091E00E94C308BCC0FE01E45BFF4F808171
:10288000843351F484E00E94FD0C0E94A2098BEF76
:1028900091E00E94C308ACC0FE01E45BFF4F808161
:1028A000853351F485E00E94FD0C0E94A2098CE062
:1028B00092E00E94C3089CC0FE01E45BFF4F808150
:1028C000863351F486E00E94FD0C0E94A2098BE140
:1028D00092E00E94C3088CC0FE01E45BFF4F808140
:1028E000873321F481E00E94FD0C82C0FE01E45B8D
:1028F000FF4F8081883321F482E00E94FD0C78C074
:102900000E94A2098AE292E00E94C30880E090E05F
:10291000AAEFB4E48B879C87AD87BE876B857C85E7
:102920008D859E8520E030E04AEF54E40E941F022E
:10293000DC01CB018F839887A987BA876F8178855F
:1029400089859A8520E030E040E85FE30E947903C2
:1029500088232CF481E090E09E838D833FC06F81BB
:10296000788589859A8520E03FEF4FE757E40E94FC
:10297000190318164CF56B857C858D859E8520E0A6
:1029800030E040E251E40E941F02DC01CB01BC01B7
:10299000CD010E944900DC01CB019E838D830FC0D5
:1029A00088EC90E09C838B838B819C810197F1F76D
:1029B0009C838B838D819E8101979E838D838D81E6
:1029C0009E81009769F714C06F81788589859A8503
:1029D0000E944900DC01CB019E838D838D819E8105
:1029E0009A83898389819A810197F1F79A838983F0
:1029F00080910A03882309F082CDC75ADF4F0FB6B2
:102A0000F894DEBF0FBECDBFCF91DF911F910F9124
:102A10000895DF93CF93CDB7DEB7AA970FB6F8949A
:102A2000DEBF0FBECDBF83E065E041E00E943A0B00
:102A300083E063E041E00E943A0B80E090E0A8E48C
:102A4000B3E48FA398A7A9A7BAA76FA178A589A572
:102A50009AA520E030E04AEF54E40E941F02DC0116
:102A6000CB018BA39CA3ADA3BEA36BA17CA18DA125
:102A70009EA120E030E040E85FE30E9479038823D4
:102A80002CF481E090E09AA389A33FC06BA17CA1C4
:102A90008DA19EA120E03FEF4FE757E40E9419036C
:102AA00018164CF56FA178A589A59AA520E030E00D
:102AB00040E251E40E941F02DC01CB01BC01CD01C8
:102AC0000E944900DC01CB019AA389A30FC088ECC6
:102AD00090E098A38F8F8F8D98A10197F1F798A31D
:102AE0008F8F89A19AA101979AA389A389A19AA1FD
:102AF000009769F714C06BA17CA18DA19EA10E94D3
:102B00004900DC01CB019AA389A389A19AA19E8FD8
:102B10008D8F8D8D9E8D0197F1F79E8F8D8F83E028
:102B200065E040E00E943A0B83E063E040E00E94F1
:102B30003A0B80E090E0A8E4B3E4898F9A8FAB8FE2
:102B4000BC8F698D7A8D8B8D9C8D20E030E04AEFB3
:102B500054E40E941F02DC01CB018D8B9E8BAF8B56
:102B6000B88F6D897E898F89988D20E030E040E8AC
:102B70005FE30E94790388232CF481E090E09C8B32
:102B80008B8B3FC06D897E898F89988D20E03FEFC8
:102B90004FE757E40E94190318164CF5698D7A8D9A
:102BA0008B8D9C8D20E030E040E251E40E941F02BA
:102BB000DC01CB01BC01CD010E944900DC01CB014D
:102BC0009C8B8B8B0FC088EC90E09A8B898B8989CA
:102BD0009A890197F1F79A8B898B8B899C89019748
:102BE0009C8B8B8B8B899C89009769F714C06D89AE
:102BF0007E898F89988D0E944900DC01CB019C8BD6
:102C00008B8B8B899C89988B8F878F85988901976F
:102C1000F1F7988B8F8783E065E041E00E943A0BE3
:102C200083E063E041E00E943A0B80E090E0A8E49A
:102C3000B3E48B879C87AD87BE876B857C858D854C
:102C40009E8520E030E04AEF54E40E941F02DC0140
:102C5000CB018F839887A987BA876F81788589850B
:102C60009A8520E030E040E85FE30E947903882302
:102C70002CF481E090E09E838D833FC06F81788546
:102C800089859A8520E03FEF4FE757E40E941903BA
:102C900018164CF56B857C858D859E8520E030E08F
:102CA00040E251E40E941F02DC01CB01BC01CD01D6
:102CB0000E944900DC01CB019E838D830FC088EC0C
:102CC00090E09C838B838B819C810197F1F79C839F
:102CD0008B838D819E8101979E838D838D819E81C3
:102CE000009769F714C06F81788589859A850E945D
:102CF0004900DC01CB019E838D838D819E819A8367
:102D0000898389819A810197F1F79A838983AA96A9
:102D10000FB6F894DEBF0FBECDBFCF91DF910895FF
:102D2000AA1BBB1B51E107C0AA1FBB1FA617B707F1
:102D300010F0A61BB70B881F991F5A95A9F780950D
:102D40009095BC01CD0108952F923F924F925F92D2
:102D50006F927F928F929F92AF92BF92CF92DF92AB
:102D6000EF92FF920F931F93CF93DF93CDB7DEB710
:102D7000CA1BDB0B0FB6F894DEBF0FBECDBF0994A4
:102D80002A88398848885F846E847D848C849B84FB
:102D9000AA84B984C884DF80EE80FD800C811B8109
:102DA000AA81B981CE0FD11D0FB6F894DEBF0FBE38
:0A2DB000CDBFED010895F894FFCFA8
:102DBA00456E74657220757365726E616D65004546
:102DCA006E746572205468652055736572204E6171
:102DDA006D650D0A000D0A757365726E616D652069
:102DEA006E6F7420666F756E640D0A00456E7465A9
:102DFA0072205061737377617264007472696573CB
:102E0A00203A000D0A456E74657220596F7572205A
:102E1A0050617373776172640D0A0077656C636F32
:102E2A006D65000D0A77656C636F6D650D0A00416B
:102E3A004C41524D0077726F6E67207061737377E1
:102E4A006F7264000D0A63686F6F73653A0D0A004A
:102E5A003120666F72206F70656E20746865206419
:102E6A006F6F72000D0A003220666F7220636C6FFA
:102E7A0073652074686520646F6F72003320666F13
:102E8A0072206F70656E20746865206C696768745B
:102E9A00003420666F7220636C6F736520746865F6
:102EAA00206C69676874003520666F72206F7065E0
:102EBA006E207468652066616E003620666F722027
:102ECA00636C6F7365207468652066616E003720D5
:102EDA00666F722061646A757374206272696768CA
:102EEA00746E657373003820666F722061646A7548
:102EFA0073742066616E2073706565640063686F21
:102F0A006F73653A316F72326F723300346F723594
:102F1A006F72366F72376F72380054686520646F4B
:102F2A006F72206F70656E65640054686520646F07
:102F3A006F7220636C6F73656400546865206C69F6
:102F4A00676874206F70656E656400546865206CEC
:102F5A006967687420636C6F7365640054686520E0
:102F6A0066616E206F70656E6564005468652066E0
:102F7A00616E20636C6F7365640057726F6E6720B1
:102F8A0063686F697365202121000000000000005A
:102F9A0000004142444F000000000000313131314D
:102FAA0000000000000048414E59000000000000E7
:102FBA00323232320000000000004245424F000027
:102FCA000000000033333333000000000000484F94
:102FDA004441000000000000343434340000000092
:102FEA0000004559414400000000000035353535E0
:102FFA00000000000000594F5553454600000000EC
:10300A0036363636000000000000414F55460000B3
:10301A000000000037373737000000000000415336
:10302A00454D000000000000383838380000000024
:10303A0000005A414B590000000000003939393963
:10304A0000000000000041484D4544000000000017
:0A305A0031313232000000000000A6
:00000001FF
